:020000022000DC
:10600000000001206D630200556302005763020027
:10601000596302005B6302005D6302000000000040
:106020000000000000000000000000005F630200AC
:106030006163020000000000636302006563020008
:10604000676302006763020067630200251F0300A5
:10605000676302006763020075C6030001CD030099
:106060006763020067630200676302006763020000
:1060700067630200676302006763020067630200F0
:1060800067630200FDF002006763020067630200BD
:106090003DF10200676302005D4604006763020091
:1060A00067630200676302006763020067630200C0
:1060B0006763020067630200000000000000000048
:1060C00067630200A11203006763020067630200B6
:1060D0006D94040067630200676302000000000023
:1060E00000000000000000000000000000000000B0
:1060F00000000000000000000000000000000000A0
:10610000000000000000000000000000000000008F
:10611000000000000000000000000000000000007F
:10612000000000000000000000000000000000006F
:10613000000000000000000000000000000000005F
:10614000000000000000000000000000000000004F
:10615000000000000000000000000000000000003F
:10616000000000000000000000000000000000002F
:10617000000000000000000000000000000000001F
:10618000000000000000000000000000000000000F
:1061900000000000000000000000000000000000FF
:1061A00000000000000000000000000000000000EF
:1061B00000000000000000000000000000000000DF
:1061C00000000000000000000000000000000000CF
:1061D00000000000000000000000000000000000BF
:1061E00000000000000000000000000000000000AF
:1061F000000000000000000000000000000000009F
:10620000344935480A1A02D0072291438D46334952
:1062100033480A1A06D00722914381F309880222E3
:1062200082F314882F483049304A00F042F8304851
:106230003049314A00F03DF830483149314A00F0E8
:1062400038F831483149324A00F033F831483249A0
:10625000324A00F02EF832483249334A00F029F829
:1062600032483349334A00F024F833483349002296
:1062700000F02AF832483349002200F025F832486D
:106280003249091A082902DB0022026041601F48D6
:106290001F49884205D00268043003B4904703BC0C
:1062A000F7E700208646EC4600200021284A904768
:1062B000FEE7884207D0521A05D0037801300B70F0
:1062C0000131013AF9D17047884202D002700130A1
:1062D000FAE770470000012000E0002000000120E4
:1062E00000000120FCFA0400143D00204842002078
:1062F000A4630200A4630200BC940400FCFA04003E
:10630000143D0020143D0020F4950400F495040091
:10631000F4950400F4950400F4950400F495040049
:10632000F4950400F4950400FAFA04003000050026
:106330004842002048420020484200206865002072
:106340006865002074650020746500207495002045
:10635000B1660200FEE7FEE7FEE7FEE7FEE7FEE7C6
:10636000FEE7FEE7FEE7FEE7704700BF094880470B
:1063700009484FF007018843854608488047084888
:10638000016841F470010160BFF34F8FBFF36F8F5D
:10639000FFF736BF6963020000000120F9680200C0
:0463A00088ED00E0A4
:1063A40000B583B01F4B0193019B02221A61019B2C
:1063B40002225A61019B1C4A9A61019B1B4ADA61C1
:1063C400019B4FF480621A62019B00229A62019B36
:1063D40000225A62019B0022DA62019B124A9A64EB
:1063E400019B134ADA64019B10221A65019B002267
:1063F4009A65019B00225A65019B0022DA65019B84
:1064040007330C49184613F02DFA019B0A49184624
:1064140013F028FA019B20229A7100BF03B05DF8A3
:1064240004FB00BF48420020F4950400C042002051
:10643400C0460020009604000496040000B589B00C
:1064440003900291019200230693039BDB6805935A
:10645400039B1B690493049A059B9A4205D9049AE9
:10646400059BD31A013B079307E0039B9A680499A1
:10647400059BCB1A1344013B0793039B9A68059B26
:10648400D31A079A934228BF13460793079A019B8E
:10649400934228BF13460793039B5A68059B1344F2
:1064A400079A0299184613F081F9069A079B134438
:1064B4000693029A079B13440293019A079BD31AEB
:1064C4000193059A079B13440593039B9B68059AC4
:1064D4009A4201D100230593039B059ADA60019B3C
:1064E400002BB5D1069B184609B05DF804FB00B536
:1064F40089B0039002910192039BDB680793039B8D
:106504009A68079BD31A0693069A019B9A420ED95E
:10651400039B5A68079B1344019A0299184613F087
:1065240045F9079A019B1A44039BDA601AE0069B1B
:106534000593039B5A68079B1344059A02991846CE
:1065440013F034F9019A069BD31A0593039B5868F8
:10655400029A069B1344059A194613F027F9039BE4
:10656400059ADA6000BF09B05DF804FB86B00190BB
:10657400019B1B690493019BDB680393049A039BAF
:106584009A4208D8019B9A68039BD21A049B13442D
:10659400013B059304E0049A039BD31A013B059342
:1065A400059B184606B0704700B589B00390029168
:1065B4000192029B0693039B5A1C13465B001344EF
:1065C400DB001F4A13440593059B5B69012B17D01D
:1065D400002B02D0022B23D029E00598FFF7C6FF39
:1065E4000490049A019B9A4202D20023079321E06B
:1065F400019B0793019A06990598FFF778FF19E024
:106604000598FFF7B3FF0490019A049B934228BFB7
:1066140013460793079A06990598FFF768FF09E060
:10662400019A06990598FFF709FF079002E00023F5
:10663400079300BF079B184609B05DF804FB00BF31
:106644004842002008B5FFF7ABFE00BF08BD0000BC
:1066540000B585B00190019B002B0AD0074B43F095
:1066640001030393019B9B010293039B02989847A8
:1066740000E000BF05B05DF804FB00BF1097040004
:1066840000B583B00190019B002B0AD04FF47A70BF
:10669400FFF7DEFF019B013B0193019B002BF5D12A
:1066A40000E000BF03B05DF804FB000000B583B058
:1066B40000F024F805F029FC0B4B1B78002B10D1BB
:1066C400094B01221A70094A0021094808F06EFD9D
:1066D4000190084B084A4FF48031184608F096FDA3
:1066E40001900EF02BFCE5E70447002095680200BA
:1066F40008970400D0460020143D002000B585B062
:1067040000230093294B01934FF40041002009F02A
:1067140005FA0390039B0293029B002B04D0244AA6
:106724006C21029808F0C6FD09F08EF9214A224B2B
:10673400D31ADB081B0443F004032049184609F06C
:10674400CDFC05F0B5FB0EF087FB01F091FE02F0E5
:10675400A5FF01F0E9FA01F063F900F075FB01F01F
:1067640043FF0A20FFF78CFF03F078FF03F090FE4D
:1067740001F064FD02F0A8FC01F03AFB6B4693E8DB
:10678400030005F091FE0E4807F0E0FA0DF0F0FF6B
:106794000DF06CFA0EF09CFB05F046FF00F012F8C9
:1067A4000FF0CCFE00BF05B05DF804FB4896040072
:1067B400609604005895040038950400A4960400DB
:1067C400F446002008B5114A114BD31ADB081B0408
:1067D40043F004030F49184609F080FC0E4B1B6874
:1067E4001A460E490E4807F0F7F90B4B5B681A4638
:1067F4000C490B4807F0F0F9074B9B681A460A4905
:10680400074807F0E9F900BF08BD00BF5895040028
:1068140038950400B0960400F446002039D30200F1
:10682400D0960400A1D60200E5D4020000B583B0DE
:10683400134A144BD31ADB081B0443F00403124914
:10684400184609F04BFC0CF097FF002005F0FDFE04
:10685400002005F02FFF0D4B019302E0019B013B4B
:106864000193019B002BF9D1002005F04FFF00207C
:1068740005F015FF0CF086FF00BF03B05DF804FBC4
:106884005895040038950400E496040040420F0033
:1068940000B583B00190019B1B68012B01D1FFF768
:1068A400C5FF094A094BD31ADB081B0443F0040350
:1068B4000749184609F012FC03F0F4FB02F0E2F970
:1068C40000BF03B05DF804FB58950400389504003C
:1068D400F09604000048704760650020FEE7000061
:1068E400024B034A1A6000BF704700BF183D0020E6
:1068F4000090D00308B500F02DF90346002B06D014
:10690400834B1B681B0A834A03F01F03136000F0C8
:106914004DF90346002B02D07F4B804A1A6000F0E9
:1069240061F90346002B06D07D4B1B685B0B7D4A47
:1069340003F00703136000F081F90346002B05D030
:10694400794BDB68784A23F08073D36000F092F9C6
:106954000346002B0ED04FF080430022C3F80C21D5
:106964004FF080430022C3F810214FF080430022EF
:10697400C3F8382500F0AAF90346002B02D06B4B6C
:1069840003221A6000F0BEF90346002B0BD0684BBB
:1069940005221A60674B01221A60674B00221A60B5
:1069A400664B3F221A6000F0C9F90346002B76D0EB
:1069B4004FF08053624AD3F80434C2F820354FF0C4
:1069C40080535F4AD3F80834C2F824354FF080531B
:1069D4005B4AD3F80C34C2F828354FF08053584A38
:1069E400D3F81034C2F82C354FF08053544AD3F8FE
:1069F4001434C2F830354FF08053514AD3F8183468
:106A0400C2F834354FF080534D4AD3F81C34C2F8E1
:106A140040354FF080534A4AD3F82034C2F8443505
:106A24004FF08053464AD3F82434C2F848354FF027
:106A34008053434AD3F82834C2F84C354FF080537E
:106A44003F4AD3F82C34C2F850354FF080533C4AB7
:106A5400D3F83034C2F854354FF08053384AD3F861
:106A64003434C2F860354FF08053354AD3F83834A3
:106A7400C2F864354FF08053314AD3F83C34C2F83D
:106A840068354FF080532E4AD3F84034C2F86C3541
:106A94004FF080532A4AD3F84434C2F8703500F0DA
:106AA40069F90346002B05D0264B1B68264A03F0E0
:106AB4004F03136000F08AF90346002B0DD04FF00A
:106AC4008043D3F8003403F00103002B05D04FF0CA
:106AD40080436FF00102C3F8002400F0A3F90346D9
:106AE400002B05D0194B1B68184A43F480631360CC
:106AF400174BD3F88830164A43F47003C2F8883031
:106B0400BFF34F8FBFF36F8FFFF7EAFE00BF08BDDF
:106B1400240300104035014074C007400DF0ADBAA5
:106B2400440200103C050040F0ED00E0A0050040E8
:106B34001056004088560040185600401456004035
:106B440000C0004058020010E40E00403C17004012
:106B540000ED00E0124B1B68DBB2062B1DD1114B7C
:106B64001B6803F00F03002B17D10F4B1B6803F0B6
:106B7400F003302B01D1012310E00B4B1B6803F011
:106B8400F003402B01D1012308E0074B1B6803F0FD
:106B9400F003502B01D1012300E000231846704775
:106BA400E00F00F0E40F00F0E80F00F00A4B1B6860
:106BB400DBB2062B0DD1094B1B6803F00F03002B2E
:106BC40007D1074B1B6803F0F003302B01D10123DD
:106BD40000E0002318467047E00F00F0E40F00F0D7
:106BE400E80F00F0124B1B68DBB2062B1DD1114BD2
:106BF4001B6803F00F03002B17D10F4B1B6803F026
:106C0400F003302B01D1012310E00B4B1B6803F080
:106C1400F003402B01D1012308E0074B1B6803F06C
:106C2400F003502B01D1012300E0002318467047E4
:106C3400E00F00F0E40F00F0E80F00F00A4B1B68CF
:106C4400DBB2062B0DD1094B1B6803F00F03002B9D
:106C540007D1074B1B6803F0F003302B01D101234C
:106C640000E0002318467047E00F00F0E40F00F046
:106C7400E80F00F0124B1B68DBB2062B1DD1114B41
:106C84001B6803F00F03002B17D10F4B1B6803F095
:106C9400F003302B01D1012310E00B4B1B6803F0F0
:106CA400F003402B01D1012308E0074B1B6803F0DC
:106CB400F003502B01D1012300E000231846704754
:106CC400E00F00F0E40F00F0E80F00F00A4B1B683F
:106CD400DBB2062B0DD1094B1B6803F00F03002B0D
:106CE40007D1074B1B6803F0F003302B01D10123BC
:106CF40000E0002318467047E00F00F0E40F00F0B6
:106D0400E80F00F00A4B1B68DBB2062B0DD1094BD0
:106D14001B6803F00F03002B07D1074B1B6803F01C
:106D2400F003302B01D1012300E000231846704703
:106D3400E00F00F0E40F00F0E80F00F00A4B1B68CE
:106D4400DBB2062B0DD1094B1B6803F00F03002B9C
:106D540007D1074B1B6803F0F003502B01D101232B
:106D640000E0002318467047E00F00F0E40F00F045
:106D7400E80F00F0124B1B68DBB2062B1DD1114B40
:106D84001B6803F00F03002B17D10F4B1B6803F094
:106D9400F003302B01D1012310E00B4B1B6803F0EF
:106DA400F003402B01D1012308E0074B1B6803F0DB
:106DB400F003502B01D1012300E000231846704753
:106DC400E00F00F0E40F00F0E80F00F0124B1B6836
:106DD400DBB2062B1DD1114B1B6803F00F03002BF4
:106DE40017D10F4B1B6803F0F003302B01D10123A3
:106DF40010E00B4B1B6803F0F003402B01D101237F
:106E040008E0074B1B6803F0F003502B01D101236A
:106E140000E0002318467047E00F00F0E40F00F094
:106E2400E80F00F0064B1B68062B05D1054B1B68C9
:106E3400062B01D1012300E000231846704700BF50
:106E4400300100103401001008B5064A002106483C
:106E540008F0ACF9054A0021054808F0A7F900BF7D
:106E640008BD00BF45700200D4970400857102007C
:106E7400D897040084B001900091284A009B1360C5
:106E8400264A019B5360019B1B69244A9360019B22
:106E94001B691B79C3F30313DBB21A461F4B1A7425
:106EA4001E4B00225A74019B1B691B681B4AD3604A
:106EB4001A4B00229A74019B1B695B79012B2AD11E
:106EC400019B1A68009BD31A0393039B002B22DBBC
:106ED400124B5B68DB68039A92FBF3F3DAB20F4B55
:106EE4009A740E4B9B7C1A46019B1B691B79C3F356
:106EF4000303DBB2013B9A420DDB019B1B691B7947
:106F0400C3F30303DBB2013BDAB2044B9A74019B73
:106F140001221A7200BF00BF04B0704780470020EE
:106F240000B587B0424B1B78012B7CD0414B1B78BA
:106F3400012B78D03F4B01221A704FF0FF33059399
:106F44004FF0FF33049300F091FD029000F088FDB0
:106F54000190019B042B03D0019B052B05D009E074
:106F6400012305930023049304E0022305930123E2
:106F7400049300BF059B002B50DB059800F010FC28
:106F84000346002B4ADB0223039344E0039B1A4687
:106F940092001A4493001A4604990B461B015B1A8B
:106FA4009B001344244A13440093009B1B7A002B38
:106FB4002ED1009B1B68029A9A4229DC019B052B67
:106FC4000FD1009B5B68029A9A420ADA009B012265
:106FD4001A72009B5B6832229B1A029A9A420EDC58
:106FE40016E0019B042B0AD1009B01221A72009B1C
:106FF4005B68029A9A4202DA039B012B07DD02992D
:107004000098FFF737FF0D4800F01AF806E000BFBC
:10701400039B013B0393039B002BB7DA054B002230
:107024001A7000BF00E000BF07B05DF804FB00BFAA
:1070340094470020954700200847002080470020FF
:1070440000B583B00190019B002B46D0254B012253
:107054001A70019B5A7C019BD968019B9B7C184642
:1070640003465B0003440B441B789A4203D2019805
:1070740000F03AF831E0019B9B685B79012B02D167
:1070840000F0BEF82AE0019B00225A74019B9B7C0D
:107094001A46019B9B681B79C3F30303DBB2013BD4
:1070A4009A4206DA019B9B7C0133DAB2019B9A7403
:1070B40008E0019B00229A74019B1B7C013BDAB21D
:1070C400019B1A74019B1B7C002B03D0019800F0D8
:1070D4000BF802E000F094F800BF00BF03B05DF8C5
:1070E40004FB00BF94470020F0B585B00190019BDC
:1070F400DA68019B9B7C19460B465B000B441344E6
:107104000393019B5B7C0133DAB2019B5A74002028
:1071140005F0D0FA184B01221A70039B5B78002B00
:1071240026D0039B9B78002B22D0144F039B5B78C3
:10713400DB0019464FEAE1724FF000034FF0000400
:10714400D40344EA5144CB0313F5FA7544F1000621
:107154004FF47A724FF000032846314611F0C0F91B
:1071640003460C46019A1946384608F04FF800BF0A
:1071740000BF05B0F0BD00BF97470020B84700200E
:10718400F0B585B00190019BDA68019B9B7C1946A0
:107194000B465B000B4413440393174B1B78002BE3
:1071A40002D0002005F0B2FA134B00221A70134FDC
:1071B400039B9B78DB0019464FEAE1724FF0000312
:1071C4004FF00004D40344EA5144CB0313F5FA7599
:1071D40044F100064FF47A724FF00003284631461A
:1071E40011F07EF903460C46019A1946384608F018
:1071F4000DF800BF05B0F0BD974700209847002068
:10720400024B00221A7000BF704700BF9447002051
:1072140008B50D4B1B78002B07D10CF0ADFA0020FC
:1072240005F013FA084B01221A70084B1B78012B46
:1072340005D1002005F06AFA044B00221A70FFF70A
:10724400DFFF00BF08BD00BF96470020974700201E
:1072540008B50D4B1B78002B07D0002005F01FFA52
:107264000CF090FA084B00221A70084B1B78012B83
:1072740005D1002005F04AFA044B00221A70FFF7EA
:10728400BFFF00BF08BD00BF9647002097470020FE
:1072940000B583B0002301931CE00023009313E0A6
:1072A4001148009B01991A4692001A4493001A4609
:1072B4000B461B015B1A9B00134403440833002252
:1072C4001A70009B01330093009B022BE8DD019BA5
:1072D40001330193019B012BDFDDFFF791FF00BF19
:1072E40003B05DF804FB00BF0847002010B58AB066
:1072F40001900023099368E0002308935FE0994814
:10730400089B09991A4692001A4493001A460B46A0
:107314001B015B1A9B00134403444FF0FF321A60B5
:107324009048089B09991A4692001A4493001A46F9
:107334000B461B015B1A9B001344034404334FF0B8
:10734400FF321A608748089B09991A4692001A442A
:1073540093001A460B461B015B1A9B00134403441B
:10736400083300221A707F48089B09991A46920034
:107374001A4493001A460B461B015B1A9B001344E4
:1073840003440C3300221A60774A099B52F82320E5
:10739400089B9B0013441868724C089B09991A4671
:1073A40092001A4493001A460B461B015B1A9B0079
:1073B4001344234410331860089B01330893089B3B
:1073C400022B9CDD099B01330993099B012B93DD5F
:1073D40000230793BDE0654A079B52F82330184603
:1073E40000F0DEF90490049B002BC0F2AF805F4AEA
:1073F400079B52F82330184603F05CF90390039B73
:10740400002B00F0A380002306930023059397E04C
:10741400039B1968059A1346DB0013449B000B4435
:1074240093F821301A46049B9342C0F28E80039B4A
:107434001968059A1346DB0013449B000B4493F828
:1074440021301A46049B934274D1039B1968059A10
:107454001346DB0013449B000B44DA684449079B42
:1074640051F82330D0183F4C069B07991A469200D6
:107474001A4493001A460B461B015B1A9B001344E3
:1074840023441860039B1968059A1346DB001344D0
:107494009B000B44D868334C069B07991A4692000C
:1074A4001A4493001A460B461B015B1A9B001344B3
:1074B4002344043318602B48069B07991A4692000C
:1074C4001A4493001A460B461B015B1A9B00134493
:1074D40003441868234C069B07991A4692001A44E1
:1074E40093001A460B461B015B1A9B00134423446A
:1074F40004331B68C21A1C49079B51F82310069BCE
:107504009B000B441B681B79C3F30303DBB2013BF1
:1075140092FBF3F0134C069B07991A4692001A4407
:1075240093001A460B461B015B1A9B001344234429
:107534000C331860069B01330693059B01330593B6
:10754400059B0B2B7FF764AF00E000BF079B013363
:107554000793079B012B7FF73EAFFFF751FE00BF58
:107564000AB010BD08470020B03D00201C3D00209B
:10757400CC97040000B585B0022302930023039343
:107584000AE00B4A039B52F823300193019800F060
:1075940023F8039B01330393039A029B9A42F0DB83
:1075A4000221044801F0DAFA00BF05B05DF804FBDB
:1075B4001C3D0020B83D002000B583B00190019827
:1075C40000F00AF80221034801F0C8FA00BF03B032
:1075D4005DF804FBB83D002000B585B0019001982A
:1075E40003F068F80390039B002B0BD0039B9B696B
:1075F4001A466FF00F0313401A46039B9A610398CF
:1076040003F032F800BF05B05DF804FB00B585B0A7
:1076140001900091019803F04DF80390039B002B17
:1076240045D00198FFF7D8FF009B013B072B37D8C3
:1076340001A252F823F000BF5D7602006F760200CB
:1076440081760200937602005D7602006F76020076
:107654008176020093760200039B9B691A460123FC
:1076640013431A46039B9A611AE0039B9B691A46CB
:10767400022313431A46039B9A6111E0039B9B69FF
:107684001A46042313431A46039B9A6108E0039B9A
:107694009B691A46082313431A46039B9A6100BF49
:1076A400039802F0E1FF0221034801F057FA00BFFA
:1076B40005B05DF804FB00BFC03D002000B589B0F3
:1076C40003900291019201230793039B5B69012BB1
:1076D40003D0039B5B69022B5BD10023049300233B
:1076E4000693039B5B69012B02D0022B04D006E0B6
:1076F4004FF4FA73069302E03223069300BF00238B
:10770400059340E0039B1968059A1346DB00134474
:107714009B000B4493F82120029B93F821309A425A
:107724002ED1039B1968059A1346DB0013449B0072
:107734000B441A69029B1B69D31A184611F0A8F866
:107744000346012B1CD1029BDB68019A134404936A
:10775400039B1968059A1346DB0013449B000B44F2
:10776400DA68049BD31A184611F092F80246069B75
:10777400934205DD0221094801F0F0F90023079343
:10778400059B01330593039B1B791A46059B934282
:10779400B8DD079B184609B05DF804FBC83D00201E
:1077A40000B587B001904FF0FF3305934FF0FF33DE
:1077B4000493019802F07EFF0390039B002B3FD0BB
:1077C400039B5B69012B03D0039B5B69022B37D1BD
:1077D400039B9B691A460F2313400293029B013BB0
:1077E400072B1FD801A252F823F000BF1178020022
:1077F40017780200297802001D7802002978020017
:1078040029780200297802002378020000230493D7
:107814000CE00123049309E00223049306E003230C
:10782400049303E04FF0FF33049300BF049B002B49
:1078340006DB039B9A68049BDB0013441B790593C6
:10784400059B184607B05DF804FB00BF08B500F0BF
:1078540007F80346184602F06DFE00BF08BD00009D
:1078640000B585B00423039302F05AFC0246614B31
:107874001A60604B1B68002B00F0B680002001F0FA
:1078840093FF02465C4B1A6000F024FD02465B4BFA
:107894001A60594B1B68002B00F0A680574B1B68DD
:1078A400002B00F0A180534B1A68534B1B681946F8
:1078B400104602F0FFFC4F4B1A68504B1B681946E8
:1078C400104602F0F7FC4C4B1B680399184601F074
:1078D4004EFE00230293002001F0A2FF0190019BC1
:1078E400181D474B1B68474A194600F0CDFD464911
:1078F400019802F081F8029BDBB21946019802F06C
:1079040055F80121019801F0BDFD0121019801F014
:10791400CFFD394B1B680199184601F0F7FF029B14
:1079240001330293002001F07BFF0190019B181D9D
:10793400334B1B68354A194600F0A6FD32490198BD
:1079440002F05AF8029BDBB21946019802F02EF8B5
:107954000121019801F096FD0221019801F0A8FD92
:10796400254B1B680199184601F0D0FF029B013397
:107974000293002001F054FF0190019B181D204B3D
:107984001B68234A194600F07FFD2249019802F042
:1079940033F8029BDBB21946019802F007F8164B44
:1079A4001B680199184601F0B1FF029B0133029351
:1079B400002001F035FF0190019B181D104B1B683E
:1079C400154A194600F060FD1449019802F014F8B4
:1079D400029BDBB21946019801F0E8FF064B1B68D5
:1079E4000199184601F092FF024B1B68184605B036
:1079F4005DF804FBD8470020DC470020E047002066
:107A0400D03D002018980400278802002C98040018
:107A14003C980400797502005498040089A402007B
:107A240008B50A4B1B78002B0DD1002208490948E0
:107A340006F0D2F801220849084806F0CDF8034BB5
:107A440001221A7000BF00BF08BD00BFE447002038
:107A5400957A0200BC980400157B0200CC980400BF
:107A6400014B1B6818467047E847002082B0064B5C
:107A74001B680193054B1B68019AD31A0193019B60
:107A8400184602B0704700BFF0470020EC470020C2
:107A940000B585B0039002910192019B002B2DD07B
:107AA400019B1B781A46184B1A60FFF7F1FB164B23
:107AB4001B68023B032B23D801A252F823F000BF1A
:107AC400DF7A0200D57A0200ED7A0200ED7A020034
:107AD4000E4B5B68184605F03BFDFFF7B9FB0CF055
:107AE400C5F80DF0F5F90AE0FFF792FB002002F06B
:107AF4009FFC0CF0C3F80DF0FDF900E000BF00BFDF
:107B040000BF05B05DF804FBE8470020F446002000
:107B140000B585B0039002910192019B002B0BD01C
:107B2400019B9B69074A1360074B1B68043B012BAD
:107B340004D8FFF7F5F900E000BF00BF00BF05B0AF
:107B44005DF804FBF0470020E847002000B585B04D
:107B54000190019BDBB20121184602F0BDFD0390A8
:107B6400039B002B04D0039BDB68054A136002E0EF
:107B7400034B00221A6000BF05B05DF804FB00BF90
:107B8400EC47002000B583B0032002F093FD019080
:107B9400019B002B10D0019B1B6824330093009B96
:107BA400002B09D0009B0022DA60019802F05CFDF2
:107BB4000221034800F0D2FF00BF03B05DF804FBCC
:107BC400D43D002008B500F007F80346184602F03B
:107BD400B1FC00BF08BD000000B583B003230193CE
:107BE40002F09EFA0246484B1A60474B1B68002B72
:107BF40000F08380002001F0D7FD0246434B1A6059
:107C040000F068FB0246424B1A60404B1B68002B95
:107C140073D03F4B1B68002B6FD03B4B1A683B4B18
:107C24001B681946104602F045FB374B1A68384B5F
:107C34001B681946104602F03DFB344B1B68019942
:107C4400184601F094FC002001F0EAFD00900321A5
:107C5400009801F017FC0121009801F0A7FE032110
:107C6400009801F025FC0921009801F037FC01215E
:107C7400009801F049FC254B1B680099184601F057
:107C840045FE002001F0CCFD0090009B181D214B07
:107C94001B68214A194600F0F7FB0121009801F006
:107CA40085FE0321009801F003FC0921009801F0EE
:107CB40015FC0121009801F027FC1849009801F0F7
:107CC4009BFE124B1B680099184601F01FFE002012
:107CD40001F0A6FD0090009B181D0E4B1B68104A76
:107CE400194600F0D1FB0F49009801F085FE074BBF
:107CF4001B680099184601F009FE034B1B681846DF
:107D040003B05DF804FB00BFF4470020F8470020EF
:107D1400FC470020DC3D00201C990400897B020004
:107D24002C99040089A4020008B5064A0021032006
:107D340000F09EFC034A0021042000F099FC00BFDF
:107D440008BD00BF857D0200044B1B78002B14BFC7
:107D540001230023DBB21846704700BF004800200F
:107D6400064B1B68002B05DD044B1B68642BA8BF66
:107D7400642300E000231846704700BFE03D002064
:107D840000B585B003900B4601928DF80B30019B32
:107D9400002B1FD09DF80B30032B02D0042B05D0F1
:107DA40018E0019BDAB20D4B1A7012E00C4A0D4B2D
:107DB400D31ADB081B0443F00400019B1B681A461A
:107DC400094908F099F9019B1B681A46074B1A6088
:107DD40000BF00BF05B05DF804FB00BF00480020F1
:107DE400589504003895040054990400E03D00209F
:107DF40000B583B000230193394B1B78002B6AD163
:107E0400052001F0D1FC0246364B1A60354B1B6845
:107E1400002B60D0334B1B680021184601F053FE41
:107E2400304B1B680121184601F03EFE2D4B1B68A8
:107E34002D49184601F056FE042001F0F1FC019092
:107E44000021019801F094FD01231946019801F0E5
:107E5400ADFD244B1B68254A1946032000F008FC9D
:107E6400204B1B680199184601F050FD042001F0D5
:107E7400D7FC01900021019801F07AFD02231946F4
:107E8400019801F093FD174B1B68184A194604200A
:107E940000F0EEFB134B1B680199184601F036FD08
:107EA400042001F0BDFC0190019B181D104B1B68C0
:107EB400104A194600F0E8FA0021019801F058FD33
:107EC40003231946019801F071FD064B1B680199C3
:107ED400184601F01BFD00BF03B05DF804FB00BFB2
:107EE4000848002004480020B57F0200097F0200F2
:107EF400E43D0020BC990400014B1B681846704700
:107F04000448002000B587B003900B4601928DF819
:107F14000B30039B002B36D0039B1B68002B32D005
:107F24000121052002F088F90590059B002B2AD039
:107F34009DF80B30032B1AD0042B2AD1174A184B67
:107F4400D31ADB081B0443F00400019B1B681A4688
:107F5400144908F0D1F8019A134B1B689A4214D0C3
:107F640002F0CEFA0346184602F024F90DE0019A15
:107F74000E4B1B689A420AD002F0C2FA0346184616
:107F840002F018F903E000BF02E000BF00E000BF08
:107F940000BF00BF07B05DF804FB00BF58950400A4
:107FA40038950400949904000C48002010480020DF
:107FB40000B589B00190019B002B7AD002231946A9
:107FC400019801F0ACFD069001231946019801F0D7
:107FD400A6FD059003231946019801F0A0FD049025
:107FE400069B002B65D0059B002B62D0049B002BC5
:107FF4005FD0FFF7A9FE0346002B08D0059B181D90
:108004002E4B1B682E4A194600F03EFA07E0059BEA
:10801400181D2A4B1B682B4A194600F035FA052215
:108024000021294811F0EBFBFFF79AFE02460A23D0
:108034001344192293FBF2F303930023079308E0FC
:108044007C21214A079B13440A461A70079B01337B
:108054000793079A039B9A42F2DB069B181D174B62
:108064001B68194A194600F00FFA80230293042270
:10807400029B9B1A0293029B9BB21946049801F03F
:1080840068FC0322039B03FB02F3013B029AD31A0D
:108094000293029B9BB21946069801F05AFC0822EF
:1080A400029B9B1A0293029B9BB21946059801F00E
:1080B40050FC00BF09B05DF804FB00BFE43D0020A4
:1080C400C0990400C49904001448002008B500F0C5
:1080D40007F80346184602F02DFA00BF08BD000059
:1080E40000B583B00323019302F01AF802463D4B16
:1080F4001A603C4B1B68002B6ED0002001F054FB2F
:108104000246394B1A6000F0E5F80246374B1A6014
:10811400354B1B68002B5FD0344B1B68002B5BD0A6
:10812400304B1A68304B1B681946104602F0C2F8EF
:108134002C4B1A682D4B1B681946104602F0BAF8EE
:10814400294B1B680199184601F011FA002001F02F
:1081540067FB0090002001F063FB0090009B181D5A
:10816400234B1B68234A194600F08EF922490098D4
:1081740001F042FC1C4B1B680099184601F0C6FB39
:10818400002001F04DFB0090009B181D184B1B684C
:108194001A4A194600F078F91949009801F02CFCA4
:1081A400114B1B680099184601F0B0FB002001F048
:1081B40037FB0090009B181D0D4B1B68114A194694
:1081C40000F062F91049009801F016FC064B1B6898
:1081D4000099184601F09AFB024B1B68184603B03D
:1081E4005DF804FB1C48002020480020244800209F
:1081F400E83D00203C9A040011820200509A0400D9
:1082040029820200649A040089A4020008B50EF0D1
:108214003FF90121024800F0A1FC00BF08BD00BFE6
:10822400EC3D002008B50EF00BF90221024800F0E5
:1082340095FC00BF08BD00BFF03D002008B5074B0A
:108244001B78002B08D1064A0021052000F010FA03
:10825400024B01221A7000BF00BF08BD284800204D
:108264006982020000B589B003900B4601928DF833
:108274000B30019B002B28D0019B1B78002B24D0B2
:10828400019B5B78002B1DD1019B1B780793032076
:1082940001F0A8FF0690069B002B16D0079BDBB2CB
:1082A4001946069801F03BFC0590059B002B0CD069
:1082B400059801F0EEFB0346002B06D0059B1B69D5
:1082C400984702E002F07AF800BF00BF09B05DF8F9
:1082D40004FB000000B583B0032001F065FA0190AF
:1082E400019B002B5FD01921019800F09FF80090AA
:1082F400009B002B17D0009B181D2D4B1B682D4A8B
:10830400194600F0C1F82C49009801F075FB0521CD
:10831400009801F01EFB1521009801F029FB0121B2
:10832400009801F052FB1721019800F07FF80090AB
:10833400009B002B17D0009B181D1D4B1B681F4A68
:10834400194600F0A1F81E49009801F055FB3221AE
:10835400009801F0FEFA1521009801F009FB0121B3
:10836400009801F032FB1821019800F05FF80090AA
:10837400009B002B17D0009B181D0D4B1B68114A46
:10838400194600F081F81049009801F035FB64218A
:10839400009801F0DEFA1521009801F0E9FA0121B4
:1083A400009801F012FB019B184603B05DF804FB32
:1083B400F83D0020A89A040041920200B09A0400FB
:1083C400EF930200B89A0400F592020000B583B05E
:1083D400032001F0E9F90190019B002B1BD0172128
:1083E400019800F023F80090009B002B13D0009B11
:1083F400181D0B4B1B680B4A194600F045F80A4937
:10840400009801F0F9FA3121009801F0A2FA15213F
:10841400009801F0ADFA019B184603B05DF804FB27
:10842400F83D0020C09A040089A4020000B585B07C
:1084340001900B468DF8033000230393019B002B1E
:1084440010D0032001F0ECF90390039B002B09D01A
:108454009DF803301946039801F0A8FA039901988E
:1084640001F054FA039B184605B05DF804FB0000C4
:10847400044B1B68002B03D1024B01221A6000BF7E
:1084840000BF70472C4800200EB400B584B00190A2
:1084940000230393019B1B68002B04D0019B1B68E2
:1084A400184610F08DFA1521012010F07BFA0246CF
:1084B400019B1A60019B1B68002B09D006AB029339
:1084C400019B1B68029A0599184610F01BFE039045
:1084D400039B184604B05DF804EB03B0704708B57D
:1084E40000F006F80346184602F024F800BF08BD61
:1084F40000B583B00223019301F012FE0246344B0F
:108504001A60334B1B68002B5CD0002001F04CF93F
:108514000246304B1A60FFF7DDFE02462E4B1A600E
:108524002C4B1B68002B4DD02B4B1B68002B49D0C8
:10853400274B1A68274B1B681946104601F0BAFEF0
:10854400234B1A68244B1B681946104601F0B2FEEF
:10855400204B1B680199184601F009F8002001F02E
:108564005FF900900321009800F08CFF002100982F
:1085740001F01CFA0021009800F09AFF00210098F5
:1085840000F0ACFF0021009800F0BEFF114B1B6807
:108594000099184601F0BAF9002001F041F9009061
:1085A400009B181D0D4B1B680D4A1946FFF76CFF05
:1085B4000C49009801F020FA064B1B6800991846F4
:1085C40001F0A4F9024B1B68184603B05DF804FBE4
:1085D400304800203448002038480020FC3D00206A
:1085E400009B040089A4020000B583B0174B1B68EC
:1085F400002B27D1164B174A1A60154B164A5A609E
:10860400134B164A9A60124B154ADA60104B154AFE
:108614001A610F4B144A5A61002301930BE00C4A70
:10862400019B52F82330019A1049184605F0D4FAF8
:10863400019B01330193019B052BF0DD034B0122C8
:108644001A6000BF00BF03B05DF804FB3C48002083
:1086540044480020449B0400549B0400689B04008D
:10866400809B0400949B0400A89B0400498702009B
:1086740000B587B00346029101928DF80F30194B73
:108684001B68059300230493019B002B24D09DF8C1
:108694000F30052B20D800F09BF80490049B002B8E
:1086A4001AD0049B9DF80F201A71019A049B9A60BA
:1086B400049B029A1A60059B002B06D1094A049B6D
:1086C400136009E0059BDB680593059BDB68002BC1
:1086D400F8D1059B049ADA60049B184607B05DF84C
:1086E40004FB00BF4048002000B587B00190144B44
:1086F4001B680593124B1B680393114B1B6804936F
:10870400019B002B17D012E0059BDB680393059BAC
:108714001B68019A9A4206D1059800F075F8049BEB
:10872400039ADA6001E0059B0493039B0593059B80
:10873400002BE9D100BF00BF07B05DF804FB00BF08
:108744004048002000B589B003900B4601928DF893
:108754000B30FFF785F90590059B042B32D0059B60
:10876400052B2FD09DF80B308DF813309DF8133066
:10877400052B27D801238DF81F30144B1B68069353
:108784001BE0069B1B799DF813209A420AD1069B95
:108794009B68002B06D0069B9B689DF80B10019AE2
:1087A40006989847069BDB68002B03D0069BDB6882
:1087B400069302E000238DF81F309DF81F30002B34
:1087C400DFD100BF00BF09B05DF804FB40480020C2
:1087D40000B583B0002301931021012010F0E2F8CA
:1087E4000190019B184603B05DF804FB84B001902E
:1087F40000230393019B002B02D0019B1B6803936E
:10880400039B184604B0704700B583B00190019BE8
:10881400002B02D0019810F0D3F800BF03B05DF82C
:1088240004FB00B583B00190019800F009F80346F9
:10883400184601F07FFE00BF03B05DF804FB0000A2
:1088440000B58BB0019001F06BFC0246824B1A60BC
:10885400019801F02FFF07907F4B1B68002B00F05D
:10886400F480079B002B00F0F080079B1B7B0133F7
:108874000993079B9B691A46102313400693079B91
:108884009B691A462023134005930198FEF788FF3D
:108894000490069B002B05D0059B002B02D0099B5E
:1088A40001330993002000F07FFF02466B4B1A60EE
:1088B400FFF710FD02466A4B1A60684B1B68002BD9
:1088C40000F0C380664B1B68002B00F0BE80624B37
:1088D4001A68624B1B681946104601F0EBFC5E4BAC
:1088E4001A685F4B1B681946104601F0E3FC5B4BAA
:1088F4001B680999184600F03AFE0023089356E0D5
:10890400002000F08DFF0390049B002B16DB079BD7
:108914009A68089BDB0013441B791A46049B934214
:108924000CD1039B181D079B9A68089BDB0013441A
:108934001B681A464B49FFF7A7FD0CE0039B181D63
:10894400494B1968079B9A68089BDB0013441B6812
:108954001A46FFF799FD4549039801F04DF80221A5
:10896400039800F08FFD079B9A68089BDB00134473
:108974001B791946039801F019F8079B5B69DBB270
:108984001946039800F094FD079B9A68089BDB0046
:1089940013441B791946039800F0A0FD2F4B1B6864
:1089A4000399184600F0B2FF089B01330893079B14
:1089B4001B7B1A46089B9342A2DB069B002B20D00C
:1089C400059B002B1DD0002000F02AFF0390039B81
:1089D400181D254B1B68264A1946FFF755FD2549E6
:1089E400039801F009F80021039800F04BFD6F2172
:1089F400039800F0DBFF194B1B680399184600F03D
:108A040085FF002000F00CFF0390039B181D164BFC
:108A14001B68194A1946FFF737FD1849039800F0F7
:108A2400EBFF0021039800F02DFDDE21039800F0F8
:108A3400BDFF0A4B1B680399184600F067FF074BFC
:108A44001B680F49184601F04DF8034B1B68184684
:108A54000BB05DF804FB00BF5C48002060480020B8
:108A640064480020F49B0400003E0020259D020081
:108A7400049C040079750200189C040089A4020077
:108A8400898A020000B589B00190019B002B5CD05B
:108A9400019801F09FF80346002B56D1019801F08C
:108AA40030F80790002306934CE0079800F0B3FFDA
:108AB4000590059B002B45D0059800F042FD034628
:108AC4008DF813309DF81330184601F0F3FD039030
:108AD4009DF813301846FEF763FE0290039B1B7B40
:108AE4001A46069B934226DA029B002B16DB039B55
:108AF4009A68069BDB0013441B791A46029B934237
:108B04000CD1079B181D039B9A68069BDB0013443A
:108B14001B681A460F49FFF7B7FC0CE0079B181DAA
:108B24000D4B1968039B9A68069BDB0013441B6872
:108B34001A46FFF7A9FC069B01330693079800F039
:108B4400C1FE0790079B002BAFD100BF09B05DF8B1
:108B540004FB00BFF49B0400003E002000B583B07A
:108B6400019000910099019800F008F80346184616
:108B740001F0E0FC00BF03B05DF804FB00B587B072
:108B8400019000910023049300230393019B002B85
:108B940069D0009B002B66DD01F0C2FA0246354B1A
:108BA4001A60042000F000FE0246334B1A60FFF7FF
:108BB4000DFC0246314B1A602E4B1B68002B52D021
:108BC4002D4B1B68002B4ED02C4B1B68002B4AD01E
:108BD400284B1A68284B1B681946104601F06AFB9B
:108BE400244B1A68254B1B681946104601F062FB9A
:108BF4000023059333E0042000F012FE0290029B50
:108C0400002B29D01C4B1B680299184600F07EFEED
:108C1400029B181D1A4B1968059B9B00019A13446B
:108C24001B681A46FFF730FC0021029800F091FE01
:108C3400059B9BB21A46920013445B009AB2059BB3
:108C4400002BCCBF01230023DBB29BB213449BB2A5
:108C54001946029800F08CFE059B01330593059A92
:108C6400009B9A42C7DB034B1B68184607B05DF8AC
:108C740004FB00BF684800206C48002070480020B6
:108C8400043E002008B500F007F80346184601F03A
:108C940051FC00BF08BD000010B582B00023019351
:108CA400574B1B78002B40F0A68001F039FA02469E
:108CB400544B1A60534B1B68002B00F09C8004201B
:108CC40000F072FD0246504B1A60032000F06CFD68
:108CD40002464E4B1A604C4B1B68002B00F08B80F5
:108CE4004A4B1B68002B00F08680464B1A68464BA3
:108CF4001B681946104601F0DDFA424B1A68434BD3
:108D04001B681946104601F0D5FA404B1B68172121
:108D14001846FFF78BFB0090009B002B14D0009BA0
:108D2400181D3B4B19683B4B1B681A46FFF7ACFBFD
:108D34003949009800F060FE3721009800F009FEE0
:108D44001521009800F014FE042000F069FD019044
:108D5400019B181D2E4B1968304B1B681A46FFF7F0
:108D640093FB3121019800F0F4FD0021019800F0FB
:108D7400FFFD254B1B680199184600F0C7FD042030
:108D840000F04EFD01900321019800F0E2FD0B215B
:108D9400019800F0EDFD0123DBB21946019800F0C3
:108DA40005FE194B1B680199184600F0AFFD154BE1
:108DB4001C68FFF7A1F803461946204601F07AFA29
:108DC400114B1B680021184600F07DFE0F4B1B68F9
:108DD4000021184600F077FE0A4B1B680021184654
:108DE40001F085FA084B1B680D49184600F07AFE1D
:108DF400034B01221A70034B1B68184602B010BDC6
:108E040074480020784800207C48002080480020D6
:108E1400083E0020103E00209D8E02000C3E0020E3
:108E2400298E020000B585B00190019B002B29D04A
:108E34000123DBB21946019800F071FE0390039BF5
:108E4400002B1FD00120FEF7ABFC0346B3F1FF3F1C
:108E540010D10220FEF7A4FC0346B3F1FF3F09D171
:108E6400039B181D094B1968094B1B681A46FFF729
:108E74000BFB07E0039B181D044B1B68054A1946AE
:108E8400FFF702FB00BF05B05DF804FB083E0020BD
:108E9400143E0020A09C040008B500F007F8034627
:108EA400184601F047FB00BF08BD000000B585B0BF
:108EB4000623039301F034F90290029B002B00F087
:108EC400E080002000F070FC0246704B1A60FFF74F
:108ED40001FA02466E4B1A606C4B1B68002B00F0C3
:108EE400D0806B4B1B68002B00F0CB8000230193D8
:108EF400664B1B681946029801F0DCF9644B1B6849
:108F04001946029801F0D6F9604B1B68039918467C
:108F140000F02DFB002000F083FC0090009B181D46
:108F24005C4B1B685C4A1946FFF7AEFA5B49009834
:108F340000F062FD019BDBB21946009800F036FD9B
:108F4400524B1B680099184600F0E0FC019B01336A
:108F54000193002000F064FC0090009B181D4D4B11
:108F64001B684F4A1946FFF78FFA4E49009800F0E4
:108F740043FD019BDBB21946009800F017FD434BFB
:108F84001B680099184600F0C1FC019B0133019352
:108F9400002000F045FC0090009B181D3D4B1B6811
:108FA400414A1946FFF770FA4049009800F024FD41
:108FB400019BDBB21946009800F0F8FC334B1B68A8
:108FC4000099184600F0A2FC019B01330193002094
:108FD40000F026FC0090009B181D2E4B1B68344AA1
:108FE4001946FFF751FA3349009800F005FD019B3B
:108FF400DBB21946009800F0D9FC244B1B68009999
:10900400184600F083FC019B01330193002000F01B
:1090140007FC0090009B181D1E4B1B68264A19462E
:10902400FFF732FA2549009800F0E6FC019BDBB219
:109034001946009800F0BAFC144B1B6800991846B6
:1090440000F064FC019B01330193002000F0E8FB75
:109054000090009B181D0F4B1B68194A1946FFF717
:1090640013FA1849009800F0C7FC019BDBB21946BB
:10907400009800F09BFC054B1B680099184600F013
:1090840045FC029B184605B05DF804FB84480020AB
:1090940088480020183E0020E09C0400517802001B
:1090A400F09C0400C97B0200009D0400E3840200DC
:1090B400149D040093BC0200249D0400E9B6020040
:1090C400349D040089A40200084B094A1A60074B26
:1090D400084A5A60054B084ADA60044B074A9A600A
:1090E400024B074A1A6100BF704700BF8C4800203A
:1090F40009910200019602001D96020041960200A9
:109104007D96020000B58BB00190019B002B00F00E
:109114008B80019B9B68002B00F08680019800F0F7
:109124004EFD0890089B002B7ED00023099376E027
:10913400089BDA68099B9B0013441B680793079BF1
:10914400DBB21946019800F00EFD0690069B002B39
:1091540062D0069800F092FC0346002B5CD106987E
:1091640000F059FC0590059B002B28D0059800F0D1
:10917400DDF90346032B22D1059800F0E2F90346FA
:109184008DF81330059800F0E7F903909DF813303B
:109194000399184601F0A0FA0290029B002B06D016
:1091A400069B04330299184601F0C6FB07E0069BB0
:1091B400181D1F4B1B681F4A1946FFF765F9089BCA
:1091C4009B68079A9A4212D1099A13469B0013444A
:1091D4005B001A46099B002BCCBF01230023DBB2A2
:1091E40013441A4601230021134801F0C8F80698D5
:1091F40000F023FC099A13469B0013445B001A46B3
:10920400099B002BCCBF01230023DBB213441A4675
:1092140001230A2101F0B3F8099B01330993089B48
:109224005B68099A9A4283DB00BF0BB05DF804FBCC
:109234001C3E0020789D0400889D040000B585B084
:10924400002000F0CFFF0290029B002B4CD0029B29
:109254009B68002B48D0029B1B68002B44D0029BC8
:109264009B680193019B9B685A1E019B9A60019B1A
:109274009B68002B04DA019B1B685A1E019B9A60B1
:10928400019800F08FF803468DF803309DF8033001
:10929400002B23D1002303931BE0019BDA68039B7B
:1092A4009B0013441A68013A1A60019BDA68039B15
:1092B4009B0013441B68002B08DA019B1A68019B6E
:1092C400D968039B9B000B44013A1A60039B01334A
:1092D4000393019B5B68039A9A42DEDB01F010F969
:1092E4000346184600F066FF00BF05B05DF804FBB6
:1092F40000B585B0002000F075FF0290029B002BA2
:109304004CD0029B9B68002B48D0029B1B68002B0F
:1093140044D0029B9B680193019B9B685A1C019B50
:109324009A60019B1A68019B9B689A4202DC019B2C
:1093340000229A60019800F035F803468DF8033056
:109344009DF80330002B23D1002303931BE0019BE2
:10935400DA68039B9B0013441A6801321A60019B6C
:10936400DA68039B9B0013441A68019B1B689A42AA
:1093740006DB019BDA68039B9B00134400221A60FE
:10938400039B01330393019B5B68039A9A42DEDBE0
:1093940001F0B6F80346184600F00CFF00BF05B014
:1093A4005DF804FB84B0019000238DF80F30002396
:1093B400029310E0019B9A68019BD968029B9B0071
:1093C4000B441B689A4203D101238DF80F3007E048
:1093D400029B01330293019B5B68029A9A42E9DB88
:1093E4009DF80F30184604B0704700B585B00020D2
:1093F40000F0F8FE0390039B002B3ED0039B9B6878
:10940400002B3AD0039B1B68002B36D0039B9B6830
:109414000293029B002B30D0029B9B68DBB219465F
:10942400039800F0A0FB0190019BDB680093009B74
:109434001B78022B09D0032B11D0012B19D1009BCF
:109444005B781846FFF7EDF918E0009B5B781A4645
:10945400009B9B781946104600F062FC0EE0009BCE
:109464005B781A46009B5B681946104601F0A8FF1A
:1094740004E0019B1B69984700E000BF00BF05B0F2
:109484005DF804FB84B001900B468DF80330019B1A
:10949400002B0AD09DF80330002B06D0019BDB681B
:1094A4000393039B9DF803201A7000BF04B0704718
:1094B40084B001900B468DF80330019B002B0AD039
:1094C4009DF80330002B06D0019BDB680393039BBC
:1094D4009DF803205A7000BF04B0704784B0019017
:1094E4000B468DF80330019B002B0AD09DF8033006
:1094F400002B06D0019BDB680393039B9DF803209C
:109504009A7000BF04B0704784B001900091019B31
:10951400002B08D0009B002B05D0019BDB68039334
:10952400039B009A5A6000BF04B0704782B0019058
:10953400019B002B02D0019B1B78FFE7184602B069
:10954400704782B00190019B002B02D0019B5B7895
:10955400FFE7184602B0704782B00190019B002BD0
:1095640002D0019B5B68FFE7184602B0704710B554
:1095740084B001900091019B002B3CD0019B9B681F
:10958400002B38D0009B002B35D0019B9B68002218
:109594009A60019B9B68009A1A60009B022B04DC72
:1095A400019B9B68009A5A6003E0019B9B6803221D
:1095B4005A60009A019B9C68042110460FF0F2F94E
:1095C4000346E360019B9B68DB68002B13D00023F8
:1095D40003930AE0019B9B68DA68039B9B00134496
:1095E400039A1A60039B01330393019B9B685B6896
:1095F400039A9A42EEDB00BF04B010BD00B583B0FD
:1096040000230193102101200FF0CCF90190019B5C
:10961400184603B05DF804FB00B583B008210120AF
:109624000FF0C0F90190019B002B02D0019B002296
:109634001A70019B184603B05DF804FB00B585B0B1
:109644000190019B1B68002B12D0019B1B689B6837
:109654000393039BDB68002B04D0039BDB68184651
:109664000FF0AEF9019B1B689B6818460FF0A8F930
:1096740000BF05B05DF804FB00B583B00190019B09
:109684001B68002B05D0019B1B68DB6818460FF094
:1096940097F900BF03B05DF804FB000082B0224BD1
:1096A4001B78002B3CD1204B01221A70002301931C
:1096B40033E01E49019A13469B0013449B000B445C
:1096C400043300221A601949019A13469B0013447B
:1096D4009B000B44083300221A601449019A134674
:1096E4009B0013449B000B440C3300221A600F4967
:1096F400019A13469B0013449B000B441033002231
:109704001A600A49019A13469B0013449B000B44B8
:1097140000221A60019B01330193019B052BC8DDD4
:1097240000BF02B0704700BF044900208C480020ED
:1097340000B585B00190019B002B2FD0019B1B69C4
:10974400002B03D0019B1B6901989847019B1B794F
:109754001946144A0B469B000B449B0013441B6898
:10976400002B0CD0019B1B7919460E4A0B469B001B
:109774000B449B0013441B68019898470EE0019B1F
:109784001B68039306E0039800F0D7FD039800F0EC
:1097940099F80390039B002BF5D100BF00BF05B0DF
:1097A4005DF804FB8C48002000B585B003468DF8B5
:1097B4000730002303939DF80730052B29D818217F
:1097C40001200FF0EFF80390039B002B21D0039BA3
:1097D4009DF807201A710121039800F074F99DF88F
:1097E40007200E4913469B0013449B000B4404338B
:1097F4001B68002B0DD09DF80720084913469B00D9
:1098040013449B000B4404331B6898470246039B94
:109814009A60039B184605B05DF804FB8C48002051
:1098240000B585B003468DF80730002303939DF8F7
:109834000730052B27D8182101200FF0B3F8039027
:10984400039B002B1FD09DF807301946039800F0A6
:109854009EF89DF807200E4913469B0013449B0075
:109864000B440C331B68002B0DD09DF807200849CE
:1098740013469B0013449B000B440C331B6898470E
:109884000246039BDA60039B184605B05DF804FBAF
:109894008C48002082B001900091019B002B0DD0D8
:1098A400009B002B0AD002E0019B5B690193019BA2
:1098B4005B69002BF8D1019B009A5A61009B184602
:1098C40002B0704784B0019000230393019B002BE6
:1098D40006D0019B5B69002B02D0019B5B6903935B
:1098E400039B184604B0704784B00190002303938F
:1098F400019B002B06D0019B5B69002B02D0019BCE
:109904005B690393039B184604B0704784B00190CD
:109914000091019B002B18D0009B002B15D0019BBC
:109924001B68002B03D1019B009A1A600DE0019B78
:109934001B68039302E0039B5B690393039B5B69CE
:10994400002BF8D1039B009A5A61009B184604B07F
:10995400704782B001900B46ADF80230019B002B9A
:1099640003D0019BBDF802201A8000BF02B07047EB
:1099740082B001900B46ADF80230019B002B03D05E
:10998400019BBDF802205A8000BF02B0704782B02C
:1099940001900B468DF80330019B002B03D0019BF3
:1099A4009DF803201A7200BF02B0704782B0019084
:1099B4000B468DF80330019B002B03D0019B9DF8CF
:1099C40003205A7200BF02B0704782B001900B4668
:1099D4008DF80330019B002B0BD09DF80330012B35
:1099E40003D09DF80330002B03D1019B9DF8032085
:1099F4009A7200BF02B0704782B001900091019B3F
:109A0400002B05D0009B002B02D0009A019B1A6109
:109A140000BF02B0704784B0019000230393019B00
:109A2400002B06D0019BDB68002B02D0019BDB6876
:109A34000393039B184604B0704782B00190019BC6
:109A4400002B02D0019B5B68FFE7184602B0704709
:109A540082B00190019B002B02D0019B1B88FFE781
:109A6400184602B0704782B00190019B002B02D0CF
:109A7400019B5B88FFE7184602B0704782B00190F3
:109A8400019B002B02D0019B9B7AFFE7184602B092
:109A9400704782B00190019B002B02D0019B1B698F
:109AA400FFE7184602B0704782B001900B468DF86C
:109AB4000330019B002B03D0019B9DF803205A71B6
:109AC40000BF02B0704782B001900B468DF803309E
:109AD400019B002B03D0019B9DF803201A7300BF48
:109AE40002B0704782B001900091019B002B05D019
:109AF400009B002B02D0009A019B1A6100BF02B0A8
:109B0400704784B0019000230393019B002B02D083
:109B1400019B1B680393039B184604B0704700B570
:109B240085B001900B468DF8033000230393019B0D
:109B3400002B13D0019B1B6802930CE0029B5B7A01
:109B44009DF803209A4202D1029B039306E00298F7
:109B5400FFF7B8FE0290029B002BEFD1039B18463F
:109B640005B05DF804FB00B587B001900B468DF895
:109B7400033000230593019B002B1BD0019B1B6822
:109B8400049300238DF80F3011E09DF80F209DF809
:109B940003309A4202D1049B05930BE09DF80F30E9
:109BA40001338DF80F300498FFF78CFE0490049B6A
:109BB400002BEAD1059B184607B05DF804FB82B080
:109BC4000190019B002B02D0019B9B68FFE7184684
:109BD40002B0704782B00190019B002B02D0019B20
:109BE4001B79FFE7184602B0704782B00190019BD1
:109BF400002B02D0019B5B79FFE7184602B0704747
:109C040082B00190019B002B02D0019B1B7BFFE7DC
:109C1400184602B07047000000B587B00190019B60
:109C2400002B76D0019B1846FFF7EAFF0346002B72
:109C34006FD0019B1846FEF757FD019B1B798DF8E9
:109C44001330019B059339E0059B1B681433039380
:109C5400059B1B68DB68002B1ED09DF813202F4941
:109C640013469B0013449B000B4410331B68002BCA
:109C74000CD09DF81320294913469B0013449B00E4
:109C84000B4410331B680598984705E0059B1B6837
:109C9400DB6818460EF094FE059B1B685B68002B7E
:109CA40005D0059B1B685B6818460EF089FE059B72
:109CB4001B6818460EF084FE039B0593059B1B68E6
:109CC400002BC1D1019B9B68002B1ED09DF8132053
:109CD400124913469B0013449B000B4408331B6832
:109CE400002B0DD09DF813200C4913469B00134400
:109CF4009B000B4408331B6801AA1046984704E0F4
:109D0400019B9B6818460EF05BFE019B18460EF003
:109D140057FE00BF07B05DF804FB00BF8C4800206D
:109D240000B583B0019000910099019800F008F803
:109D34000346184600F0FEFB00BF03B05DF804FBC9
:109D440000B58BB00190009100F0EAF90246984BFF
:109D54001A60019800F0AEFC0690954B1B68002B2E
:109D640000F01F81069B002B00F01B810023099348
:109D7400904A019B1360904A009B1360069B9B6969
:109D84001A46102313400593069B9B691A46202309
:109D9400134004930023089313E0069B1968089A60
:109DA4001346DB0013449B000B4493F821301A46FE
:109DB400009B934202D1099B01330993089B013311
:109DC4000893069B1B791A46089B9342E5DB059B87
:109DD400002B05D0049B002B02D0099B013309936F
:109DE400099B01330993099B013309930020FFF771
:109DF400DBFC0246714B1A60FEF76CFA0246704BAC
:109E04001A606E4B1B68002B00F0CB806C4B1B68F8
:109E1400002B00F0C680664B1A68684B1B68194615
:109E2400104600F047FA624B1A68654B1B681946E6
:109E3400104600F03FFA614B1B6809991846FFF77A
:109E440096FB002307934CE0069B1968079A134678
:109E5400DB0013449B000B440393039B002B3DD076
:109E6400039B93F821301A46009B934236D100207D
:109E7400FFF7D6FC029053490298FFF7BDFD03217A
:109E84000298FFF7FFFA039B1B69DBB2194602989D
:109E9400FFF78CFD069B5B69DBB219460298FFF75E
:109EA40007FB069B9A68079BDB0013441B79194642
:109EB4000298FFF713FB069B1968079A1346DB0009
:109EC40013449B000B441B6919460298FFF71CFBC3
:109ED4003A4B1B6802991846FFF718FD079B01339C
:109EE4000793069B1B791A46079B9342ACDB059BA1
:109EF400002B36D00020FFF793FC0290029B181D24
:109F0400314B1B68314A1946FEF7BEFA30490298B4
:109F1400FFF772FD00210298FFF7B4FA274B1B6884
:109F240002991846FFF7F2FC049B002B19D000207D
:109F3400FFF776FC0290029B181D234B1B68254AF1
:109F44001946FEF7A1FA24490298FFF755FD0021AE
:109F54000298FFF797FA194B1B6802991846FFF706
:109F6400D5FC0020FFF75CFC0290029B181D164BE9
:109F74001B681A4A1946FEF787FA19490298FFF72F
:109F84003BFD00210298FFF77DFA0C4B1B680299F8
:109F94001846FFF7BBFC094B1B6812491846FFF72C
:109FA400A1FD034B1B6818460BB05DF804FB00BF12
:109FB40010490020084900200C49002014490020C1
:109FC40018490020C5B30200203E0020C89D0400AB
:109FD40075A00200D89D040095A00200EC9D040029
:109FE40089A40200ED9F020000B589B00190019B95
:109FF400002B39D00198FFF7EDFD0346002B33D138
:10A004000198FFF77EFD07902AE00798FFF703FD0C
:10A014000690069B002B1FD00698FFF787FA03468D
:10A02400032B19D10698FFF78CFA03468DF81730E5
:10A034000698FFF791FA04909DF817300499184692
:10A0440000F04AFB0390039B002B05D0079B0433CD
:10A054000399184600F070FC0798FFF733FC07904B
:10A06400079B002BD1D100BF00BF09B05DF804FBF2
:10A0740008B5054B1A68054B1B6819461046FDF7D1
:10A08400C5FA00BF08BD00BF084900200C490020E4
:10A0940008B5034B1B681846FDF78EFA00BF08BDD0
:10A0A40008490020F0B583B0194B1B78002B2BD145
:10A0B400174B01221A70174A0021174805F076F849
:10A0C4000190164F00F072F9034699B24FF0000266
:10A0D4004FF000034FF00004D40344EA5144CB038F
:10A0E40013F5FA7544F100064FF47A724FF0000349
:10A0F400284631460EF0F4F903460C460022194670
:10A10400384605F083F800BF00BF03B0F0BD00BFC0
:10A114003C49002035A40200F49D04001C490020A1
:10A1240000B583B0082101200EF03CFC0190019B96
:10A13400002B03D00121019800F0D9F8019B1846A7
:10A1440003B05DF804FB00B585B0019000F0DEF8C3
:10A15400019800F0A8F8039006E00398FFF7E8FAE6
:10A164000398FFF7C1FB0390039B002BF5D100F08C
:10A1740018F900BF05B05DF804FB00B585B0019087
:10A18400019B002B12D0019800F08DF8039007E09A
:10A19400039B5B6902930398FFF73EFD029B0393C5
:10A1A400039B002BF4D1019800F058F900BF05B0CF
:10A1B4005DF804FB00B583B00190019B002B02D035
:10A1C4000198FFF7C0FF00BF03B05DF804FB82B045
:10A1D4000190019B002B02D0019B1B79FFE71846DD
:10A1E40002B0704700B587B003468DF807300023EE
:10A1F400059300F085F90390039B002B17D0039877
:10A2040000F051F804900FE00498FFF7E3FC0346D4
:10A214001A469DF80730934202D1049B059306E049
:10A224000498FFF761FB0490049B002BECD1059B81
:10A23400184607B05DF804FB00B587B003460A462C
:10A244008DF8073013468DF806300023059300F08F
:10A2540057F90390039B002B20D0039800F023F8B8
:10A26400049018E00498FFF7B5FC03461A469DF8DD
:10A27400073093420BD10498FFF7B7FC03461A4604
:10A284009DF80630934202D1049B059306E004989E
:10A29400FFF72AFB0490049B002BE3D1059B18468F
:10A2A40007B05DF804FB82B00190019B1B6818465F
:10A2B40002B0704700B583B001900091019B002B60
:10A2C40010D0009B002B0DD0019B1B68002B03D1E9
:10A2D400019B009A1A6005E0019B1B6800991846CF
:10A2E400FFF7D8FA009B184603B05DF804FB82B070
:10A2F40001900B468DF80330019B002B03D0019B8A
:10A304009DF803201A7100BF02B0704708B502F02F
:10A3140001FB00BF08BD00B587B00590049103920E
:10A32400029300230093029B039A0499059802F078
:10A33400F9FA00BF07B05DF804FB30B583B00190B3
:10A34400019B002B18D00198FFF798FB0346002BC4
:10A3540012D10198FFF771FB04460198FFF778FBCF
:10A3640003461D460198FFF77EFB03461A46012368
:10A374002946204600F003F800BF03B030BD00B505
:10A3840085B00390029101928DF803309DF803305B
:10A39400019A0299039802F0E5FA00BF05B05DF84E
:10A3A40004FB08B502F0F6FA00BF08BD024B1B68B7
:10A3B4009BB21846704700BF243E0020F8B51B4BE3
:10A3C400184604F055FF194FFFF7F0FF034699B202
:10A3D4004FF000024FF000034FF00004D40344EAAE
:10A3E4005144CB0313F5FA7544F100064FF47A7225
:10A3F4004FF00003284631460EF072F803460C462F
:10A4040000221946384604F001FF00F04DF80346D7
:10A41400002B08D00AF05CFD00F046F8034618460D
:10A42400FFF7C8FE00BF00BFF8BD00BF1C490020F5
:10A4340000B583B00190084B184604F019FF00F0F2
:10A44400D9F8FFF763FFFFF7ACFF0AF053FD00BF35
:10A4540003B05DF804FB00BF1C49002000B583B0C5
:10A464000190019B002B09D00198FFF7B0FE034631
:10A47400002B03D001980EF0A3FA00BF00BF03B075
:10A484005DF804FB08B500F07DF800BF08BD0000CE
:10A49400044B1B78002B02D1024B01221A7000BF1F
:10A4A400704700BF3D490020074B93F90030002B53
:10A4B40007D1054B93F900301A46044B53F8223068
:10A4C40000E0002318467047283E00204049002041
:10A4D400044B93F90030DB115BB203F0010318461F
:10A4E400704700BF283E0020044B93F900300E2B28
:10A4F400CCBF01230023DBB218467047283E00205E
:10A5040000B583B000230193FFF7E2FF0346002B5D
:10A5140007D1064B93F900301A46054B53F8223005
:10A524000193019B184603B05DF804FB283E00200C
:10A534004049002000B583B00190019B002B18D046
:10A54400FFF7D2FF0346002B13D10C4B93F90030D5
:10A55400DBB20133DBB25AB2084B1A70074B93F9E2
:10A5640000301946064A019B42F821300198FFF752
:10A57400EAFD00BF03B05DF804FB00BF283E0020E5
:10A584004049002000B583B000230193FFF7A0FFEA
:10A594000346002B25D1FFF7B3FF0190134B93F92A
:10A5A40000301A46124B53F822301846FFF7E5FDE7
:10A5B4000E4B93F90030DBB2013BDBB25AB20B4BCA
:10A5C4001A700A4B93F900301A46094B53F822309B
:10A5D4000193FFF77DFF0346002B02D10198FFF79B
:10A5E400B2FD019B184603B05DF804FB283E002031
:10A5F4004049002000B583B000230193FFF768FFB2
:10A604000346002B21D1134B93F900301A46124B09
:10A6140053F82230019313E00198FFF7AEFD0D4B80
:10A6240093F90030DBB2013BDBB25AB2094B1A702A
:10A63400084B93F900301A46074B53F82230019324
:10A64400044B93F90030002BE6DC00BF03B05DF847
:10A6540004FB00BF283E00204049002008B500F05C
:10A6640003FB00BF08BD000000B585B00190019B4D
:10A67400002B18D0019B5B690393039B002B12DB17
:10A68400039B042B0FDC0A49039B019A41F8232006
:10A69400019800F05FF8019B5B6A002B03D0019BDB
:10A6A4005B6A0398984700BF05B05DF804FB00BFE0
:10A6B4007C49002084B0019000230393019B042B68
:10A6C40004DC044A019B52F823300393039B18468D
:10A6D40004B070477C49002000B587B00346009160
:10A6E4008DF80730002305939DF807301846FFF7CF
:10A6F400E1FF0390039B002B27D0039B1B6802936D
:10A70400029B002B21D00023049318E0049A1346E3
:10A71400DB0013449B001A46029B13441B69009AF6
:10A724009A4209D1049A1346DB0013449B001A464B
:10A73400029B1344059308E0049B01330493039B99
:10A744001B791A46049B9342E0DB059B184607B02D
:10A754005DF804FB00B589B0019000238DF81F302B
:10A76400019B002B39D0019B5B6902339B0105934C
:10A774000023049300230393002306931AE0069B0B
:10A784009A00059B13440493019B1968069A134687
:10A79400DB0013449B000B44DB680393049B03A975
:10A7A4000422184609F014FD03468DF81F30069B59
:10A7B40001330693019B1B791A46069B9342DEDB09
:10A7C400059B3C3304930498019B183301221946DA
:10A7D40009F0FEFC03468DF81F309DF81F30184623
:10A7E40009B05DF804FB000000B589B00390029144
:10A7F400019200238DF81F30019B002B15D00E4BC6
:10A804001B78012B11D1039B02339B010693029BFE
:10A814009A00069B13440593059B0422019918464C
:10A8240009F0E5FC03468DF81F309DF81F301846EB
:10A8340009B05DF804FB00BFF046002000B587B006
:10A844000190009100238DF81730009B002B13D04A
:10A854000C4B1B78012B0FD1019B02339B010493FA
:10A86400049B3C330393039B04220099184609F08C
:10A87400BEFC03468DF817309DF81730184607B014
:10A884005DF804FBF046002000B583B000238DF88A
:10A89400073000238DF806300E4B00221A707F20FB
:10A8A4000DF106030122194609F0A1FC0346002B11
:10A8B4000AD09DF80630F322934205D101238DF886
:10A8C4000730044B01221A709DF80730184603B074
:10A8D4005DF804FBF046002000B583B000238DF83A
:10A8E40007300B4B00221A707F23012209491846B6
:10A8F40009F06EFC0346002B04D0FFF7C5FF0346A6
:10A904008DF807309DF80730184603B05DF804FB56
:10A91400F0460020349E040008B5054B00221A704E
:10A924007F2301220349184609F052FC00BF08BDE9
:10A93400F0460020359E040000B587B003900291D4
:10A94400029B93F82030012B04D0022B27D0002B3C
:10A954001BD03BE0029BDB68012B0DDC214B19680B
:10A96400029B9868029BDB681F4A52F83330024608
:10A974000398FDF789FD31E01C4B19681A4B1B69DC
:10A984001A460398FDF780FD28E0194B1968029BCD
:10A994009A68029BDB680398FDF776FD1EE000F0E1
:10A9A40063F80590029800F029F80490114B196897
:10A9B400029B98680C4A059BDB0013445B68009378
:10A9C400049B02460398FDF75FFD07E0074B1968F7
:10A9D400054B1B691A460398FDF756FD00BF07B0E7
:10A9E4005DF804FB303E00203C3E00202C3E00205D
:10A9F400343E0020383E00200000000010B584B032
:10AA040001900023039300F02FF80346012B1DD17E
:10AA1400019BDB6818460CF0C3FF11A4D4E9003491
:10AA24001A4623460CF01CFD03460C4618462146E4
:10AA34004FF00002094B0CF0EDFB03460C461846A0
:10AA440021460CF01DFF0346039302E0019BDB68E3
:10AA54000393039B184604B010BD00BF0000E03F01
:10AA6400FD87F4DBD781D33F00B583B00023019386
:10AA74000020FFF71FFE0090009B002B03D0009BDB
:10AA84001B68DB680193019B012B01DC019B00E047
:10AA94000023184603B05DF804FB00B585B00190AF
:10AAA4000091282101200DF07DFF0390019B002BD4
:10AAB4003BD0009B002B38D0039B002B35D0019B4F
:10AAC400009A02FB03F3242118460DF06BFF0246A3
:10AAD400039B1A60009B082118460DF063FF024691
:10AAE400039B9A60042101200DF05CFF0246039B46
:10AAF4001A61039B1B68002B17D0039B9B68002BD8
:10AB040013D0039B1B69002B0FD0019BDAB2009B6F
:10AB1400DBB212FB03F3DAB2039B1A71009BDAB2C5
:10AB2400039B1A73039B00229A61039B184605B08A
:10AB34005DF804FB00B585B0002303938CE0039813
:10AB4400FFF7B8FD0090009B002B00F08280009B73
:10AB54009B68002B2CD0009B1B7B002B28D0002350
:10AB640002931AE0009B9A68029BDB001344002BBB
:10AB740010D0009B9A68029BDB0013441B68002BD7
:10AB840008D0009B9A68029BDB0013441B6818469C
:10AB94000DF016FF029B01330293009B1B7B1A46A8
:10ABA400029B9342DEDB009B9B6818460DF008FF76
:10ABB400009B1B68002B35D0009B1B79002B31D0E8
:10ABC4000023019323E0009B1968019A1346DB00DC
:10ABD40013449B000B44002B16D0009B1968019A68
:10ABE4001346DB0013449B000B449B68002B0BD0E3
:10ABF400009B1968019A1346DB0013449B000B4425
:10AC04009B6818460DF0DCFE019B01330193009B09
:10AC14001B791A46019B9342D5DB009B1B6818469F
:10AC24000DF0CEFE009B1B69002B0FD0009B1B690F
:10AC34001B68002B05D0009B1B691B6818460DF090
:10AC4400BFFE009B1B6918460DF0BAFE00980DF07C
:10AC5400B7FE039B01330393039B042B7FF76FAF72
:10AC640000BF05B05DF804FB08B5FFF70DFE00F06A
:10AC7400A7F800F02BF800F061F900F081FA00F079
:10AC840014F8044B1B78002B01D1FFF725FE00BFFD
:10AC940008BD00BFF046002008B5FFF73DFEFFF7F2
:10ACA40049FFFFF7E1FF00BF08BD00B583B00021F5
:10ACB4000020FFF7F2FE0190019B04225A610198E3
:10ACC400FFF7D2FC00BF03B05DF804FB00B585B00C
:10ACD400012303930123029302990398FFF7DDFEF6
:10ACE4000190019B002B5FD0019B00225A61019BC4
:10ACF4009B6800221A71019B9B6818462C4B1B68A9
:10AD04002C4A1946FDF7C0FB019B9B6800225A712F
:10AD1400019B1B691846264B1B68274A1946FDF7F9
:10AD2400B3FB019B183319460020FFF787FD034648
:10AD3400002B03D100231A46019B9A61019B1B68D7
:10AD440003F108001A4B1B681C4A1946FDF79CFBCB
:10AD5400019B1B68002283F82120019B1B680C3394
:10AD64001A4600210020FFF73FFD0346002B03D1C4
:10AD7400019B1B680022DA60019B1B6800221A6198
:10AD8400019B1B6801229A61019B1B6800225A6186
:10AD9400019B1B680122DA61019B1B68012283F875
:10ADA40020200198FFF760FC00BF05B05DF804FBAC
:10ADB400543E0020749E0400889E0400949E040067
:10ADC40000B585B0022303930123029302990398EB
:10ADD400FFF763FE0190019B002B00F09E80019B16
:10ADE40003225A61019B9B6809221A71019B9B688B
:10ADF40018464C4B1B684C4A1946FDF745FB019B12
:10AE04009B6803225A71019B1B691846454B1B68BA
:10AE1400464A1946FDF738FB019B183319460320AF
:10AE2400FFF70CFD0346002B03D000231A46019BB9
:10AE34009A61019B1B68092283F82120019B1B68EE
:10AE44000C331A4600210320FFF7CEFC0346002BE7
:10AE540003D1019B1B680022DA60019B1B6800225E
:10AE64001A61019B1B6864229A61019B1B68002282
:10AE74005A61019B1B680A22DA61019B1B6800224C
:10AE840083F82020019B1B68243303F10800254B21
:10AE94001B68274A1946FDF7F7FA019B1B68243300
:10AEA400092283F82120019B1B6824330C331A46A2
:10AEB40001210320FFF798FC0346002B04D1019BDA
:10AEC4001B6824330022DA60019B1B6824330122AF
:10AED4001A61019B1B68243344F620629A61019B2A
:10AEE4001B682433134A5A61019B1B6824330A22CA
:10AEF400DA61019B1B682433022283F82020019B22
:10AF04001B6824330A221A80019B0B4A5A62019857
:10AF1400FFF7AAFB0320FCF719FE00BF05B05DF89C
:10AF240004FB00BF543E0020A09E0400B49E040015
:10AF3400C49E040018FCFFFF517B020000B589B0D9
:10AF4400042303930323029303990298FFF7A5FDB7
:10AF54000190019B002B00F00681019B01225A61A4
:10AF6400019B834A5A6200231A46019B9A61019B02
:10AF7400BF229A83019B183319460120FFF75EFC18
:10AF84000346002B07D1102201231343202213432D
:10AF94001A46019B9A610123079300230693002319
:10AFA4000593D8E0019B9A68059BDB00134418467F
:10AFB400059B01336F4A7049FDF766FA019B9A6855
:10AFC400059BDB001344079AD2B21A71019B9A685D
:10AFD400059BDB00134401225A7100230493AFE064
:10AFE400019B1968069A1346DB0013449B000B442B
:10AFF40003F10800049B0133604A5F49FDF744FAFA
:10B00400019B1968069A1346DB0013449B000B440A
:10B01400069A1A61019B1968069A1346DB001344C9
:10B024009B000B44079AD2B283F82120069B99B265
:10B03400019B1868069A1346DB0013449B000344E3
:10B0440001F1B00292B21A80019B1968069A134664
:10B05400DB0013449B000B440C331A460699012071
:10B06400FFF7C2FB0346002B38D1049B012B11D000
:10B07400049B022B1AD0049B002B23D1019B19683B
:10B08400069A1346DB0013449B000B4441F29412CE
:10B09400DA6024E0019B1968069A1346DB00134426
:10B0A4009B000B4440F6B832DA6018E0019B196843
:10B0B400069A1346DB0013449B000B4440F2DC5217
:10B0C400DA600CE0019B1968069A1346DB0013440E
:10B0D4009B000B4442F20F72DA6000E000BF019B58
:10B0E4001968069A1346DB0013449B000B444FF483
:10B0F4007A725A61019B1968069A1346DB0013445D
:10B104009B000B4444F620629A61019B1968069ADD
:10B114001346DB0013449B000B446422DA61019B59
:10B124001968069A1346DB0013449B000B44022261
:10B1340083F82020069B01330693049B0133049378
:10B14400049A029B9A42FFF64BAF079B0133079385
:10B15400059B01330593059A039B9A42FFF622AFA0
:10B164000198FFF781FA00BF09B05DF804FB00BF46
:10B17400F1720200D09E0400DC9E0400E49E0400F0
:10B1840000B589B00423039303230293039902981F
:10B19400FFF783FC0190019B002B00F00581019BCC
:10B1A40002225A61019B824A5A6200231A46019B79
:10B1B4009A61019BCF229A83019B1833194602207E
:10B1C400FFF73CFB0346002B07D110220123134356
:10B1D400202213431A46019B9A61052307930023F7
:10B1E400069300230593D7E0019B9A68059BDB0037
:10B1F40013441846059B01336E4A6F49FDF744F921
:10B20400019B9A68059BDB001344079AD2B21A711A
:10B21400019B9A68059BDB00134402225A710023A8
:10B224000493AEE0019B1968069A1346DB001344AD
:10B234009B000B4403F10800049B01335F4A5E4901
:10B24400FDF722F9019B1968069A1346DB001344A3
:10B254009B000B44069A1A61019B1968069A1346CF
:10B26400DB0013449B000B44079AD2B283F82120DD
:10B27400069B99B2019B1868069A1346DB00134497
:10B284009B00034401F1C00292B21A80019B196829
:10B29400069A1346DB0013449B000B440C331A46F6
:10B2A40006990220FFF7A0FA0346002B38D1049B2D
:10B2B400012B11D0049B022B1AD0049B002B23D109
:10B2C400019B1968069A1346DB0013449B000B4448
:10B2D40040F2DC52DA6024E0019B1968069A1346B6
:10B2E400DB0013449B000B444FF47A72DA6018E0DD
:10B2F400019B1968069A1346DB0013449B000B4418
:10B304004FF41672DA600CE0019B1968069A134632
:10B31400DB0013449B000B4442F20F72DA6000E03E
:10B3240000BF019B1968069A1346DB0013449B0077
:10B334000B4464225A61019B1968069A1346DB0088
:10B3440013449B000B4444F620629A61019B1968E4
:10B35400069A1346DB0013449B000B440A22DA616D
:10B36400019B1968069A1346DB0013449B000B44A7
:10B37400022283F82020069B01330693049B0133A9
:10B384000493049A029B9A42FFF64CAF079B013345
:10B394000793059B01330593059A039B9A42FFF695
:10B3A40023AF0198FFF760F900BF09B05DF804FB13
:10B3B400F1720200E89E0400DC9E0400F09E04008A
:10B3C40000B583B0019000910099019800F008F84D
:10B3D40003461846FFF7AEF800BF03B05DF804FB60
:10B3E40000B589B00190009100230793FEF798FE01
:10B3F40007900198FFF75EF90246644B1A60079BB9
:10B40400002B00F0BD80614B1B68002B00F0B8805E
:10B414000420FEF7C9F906900320FEF7C5F905904C
:10B42400069B002B00F0AC80059B002B00F0A8804D
:10B4340006990798FEF73EFF05990798FEF73AFF2D
:10B44400524B1B681968009A1346DB0013449B0097
:10B454000B444F4A13604E4B1B68002B00F0908046
:10B464000420FEF7DDF90490049B181D494B19686C
:10B47400464B1B689B681B681A46FDF705F80521B7
:10B484000498FEF766FA00210498FEF771FA04990D
:10B494000698FEF73BFA0420FEF7C2F90490049BD9
:10B4A4001A1D3B4B1B6819461046FFF745FA01234A
:10B4B40019460498FEF77AFA05210498FEF749FA2A
:10B4C4000B210498FEF754FA04990698FEF71EFA25
:10B4D40019210598FCF7AAFF0390039B002B13D0B6
:10B4E400039B181D2B4B1B682B4A1946FCF7CCFFFA
:10B4F4002A490398FEF780FA05210398FEF729FAF2
:10B5040015210398FEF734FA17210598FCF78EFFEE
:10B514000390039B002B13D0039B181D1D4B1B682A
:10B524001F4A1946FCF7B0FF1E490398FEF764FA58
:10B5340032210398FEF70DFA15210398FEF718FA45
:10B5440018210598FCF772FF0390039B002B13D07E
:10B55400039B181D0F4B1B68134A1946FCF794FFF5
:10B5640012490398FEF748FA64210398FEF7F1F9AB
:10B5740015210398FEF7FCF90D490698FEF7B2FA77
:10B58400079B184609B05DF804FB00BF94490020EE
:10B5940090490020583E0020349F0400FDB502006D
:10B5A4003C9F040089A40200449F040061B6020089
:10B5B400B9B5020000B585B00190019B002B14D0F1
:10B5C4000C4B1B68002B10D0012319460198FEF781
:10B5D400A6FA0390039B002B07D0039B1A1D054B6F
:10B5E4001B6819461046FFF7A7F900BF05B05DF8C0
:10B5F40004FB00BF9049002008B5164B1B68002BC4
:10B6040026D0154B1868134B1968124B1B68DB695D
:10B614001A46FCF753F80346002B19D00D4B1B6850
:10B62400D9680C4B1B68DA690A4B1B680A44DA6058
:10B63400084B1B68DA68074B1B689B699A4205DD57
:10B64400044B1A68034B1B689269DA6000F03AF8FD
:10B6540000BF08BD904900209449002008B5174B4D
:10B664001B68002B27D0164B1868144B1968134B12
:10B674001B68DB695B421A46FCF720F80346002B83
:10B6840019D00E4B1B68D9680C4B1B68DA690B4B3D
:10B694001B688A1ADA60094B1B68DA68074B1B6857
:10B6A4005B699A4205DA054B1A68044B1B685269B8
:10B6B400DA6000F007F800BF08BD00BF9049002021
:10B6C4009449002008B5064B1B681846FEF7CCFFCA
:10B6D400FEF716FF03461846FEF76CFD00BF08BDD3
:10B6E4009449002008B500F007F803461846FEF711
:10B6F40021FF00BF08BD000070B584B0062303938A
:10B70400FEF70EFD02468D4B1A608C4B1B68002B16
:10B7140000F00E810320FEF747F80246884B1A60BA
:10B72400874B1B68002B25D0844B1A68844B1B68FD
:10B7340019461046FEF7BEFD814B1B6817211846BB
:10B74400FCF774FE0290029B002B13D0029B181D81
:10B754007C4B1B687C4A1946FCF796FE7B49029891
:10B76400FEF74AF931210298FEF7F3F81521029801
:10B77400FEF7FEF80420FEF717F80246744B1A6031
:10B78400734B1B68002B00F0D3806C4B1A68704B12
:10B794001B6819461046FEF78DFD0020FEF740F8A1
:10B7A4000190019B181D6B4B19686B4B1A686B4B0E
:10B7B4001B68FCF769FE00210198FEF7F7F80021E9
:10B7C4000198FEF7C6F800210198FEF7D1F8604B06
:10B7D4001B6801991846FEF799F80020FEF720F837
:10B7E4000190019B181D5B4B19685D4B1A685B4BFC
:10B7F4001B68FCF749FE02210198FEF7D7F84021A7
:10B804000198FEF7A6F800210198FEF7B1F8504B15
:10B814001B6801991846FEF779F80020FEF700F836
:10B824000190019B1C1D4F4B1D684F4B1E68FCF77C
:10B8340097FA0346324629462046FCF725FE0321A3
:10B844000198FEF7B3F800210198FEF782F80B2166
:10B854000198FEF78DF83E4B1B6801991846FEF7D8
:10B8640055F80020FDF7DCFF0190019B181D394BB2
:10B8740019683E4B1A68394B1B68FCF705FE042116
:10B884000198FEF793F840210198FEF762F80B2126
:10B894000198FEF76DF82E4B1B6801991846FEF7C8
:10B8A40035F80020FDF7BCFF0190019B181D254BC6
:10B8B4001B682F4A1946FCF7E7FD05210198FEF79E
:10B8C40075F800210198FEF744F815210198FEF758
:10B8D4004FF81F4B1B6801991846FEF717F8002014
:10B8E400FDF79EFF0190019B1C1D1E4B1D68214B03
:10B8F4001E68FCF7B5F80346324629462046FCF795
:10B90400C3FD01210198FEF751F85F210198FEF76C
:10B9140020F815210198FEF72BF80D4B1B680199AF
:10B924001846FDF7F3FF0A4B1B68184600F024F88D
:10B93400024B1B68184604B070BD00BF9849002034
:10B94400A04900205C3E0020A09F040089A40200BE
:10B954009C490020603E00206C3E0020683E002090
:10B96400703E0020643E0020743E0020783E00209B
:10B97400A89F04007C3E002000B583B00190019B89
:10B98400002B19D00E4A01990120FCF771FE0C4AD4
:10B9940001990220FCF76CFE094A01990320FCF787
:10B9A40067FE074A01990420FCF762FE044A0199E4
:10B9B4000020FCF75DFE00BF00BF03B05DF804FB90
:10B9C400C9B9020070B58CB005900B4603928DF88E
:10B9D400133001238DF82F300598FCF707FF0A90E8
:10B9E4000A9B002B00F0FD80002309930023ADF88F
:10B9F40022300023ADF820309DF81330042B00F2E0
:10BA0400F58001A252F823F015BB020021BA02000E
:10BA14009BBA0200F1BB020071BB02007A4B1B7897
:10BA2400032B2ED9784B00221A70FCF71FF80790CD
:10BA340000210A98FEF773F80990099B002B23D084
:10BA44000998FEF705F80346ADF822300998FEF789
:10BA54000AF80346ADF82030BDF92200BDF92010E4
:10BA64000B233F22FEF757FC099B181D674B1968EF
:10BA7400674B1A68079BFCF707FD0998FEF75DFC06
:10BA840002E000238DF82F305F4B1B780133DAB2CC
:10BA94005D4B1A70AAE05F4B1B78132B2ED95D4BBC
:10BAA40000221A7002210A98FEF739F80990099BBE
:10BAB400002B26D00998FDF7CBFF0346ADF82230C2
:10BAC4000998FDF7D0FF0346ADF82030BDF92200F8
