:020000040000FA
:100FF8000080070000E0070000000000000000007B
:020000040007F3
:108000000000012045830700A5830700A783070020
:10801000A9830700AB830700AD83070000000000C1
:1080200000000000000000000000000005D0070074
:10803000B183070000000000B3830700B583070089
:10804000B7830700B7830700B7830700B78307002C
:10805000B7830700B7830700B7830700B78307001C
:10806000B7830700B7830700B7830700B78307000C
:10807000B7830700B7830700B7830700B7830700FC
:108080006DB30700B7830700B7830700B783070006
:10809000B7830700B783070005D20700B78307003F
:1080A000B7830700B7830700B7830700B7830700CC
:1080B000B7830700B783070000000000000000003E
:1080C000B7830700B7830700B7830700B7830700AC
:1080D0001DB00700B7830700B7830700000000004A
:1080E0000000000000000000000000000000000090
:1080F0000000000000000000000000000000000080
:10810000000000000000000000000000000000006F
:10811000000000000000000000000000000000005F
:10812000000000000000000000000000000000004F
:10813000000000000000000000000000000000003F
:10814000000000000000000000000000000000002F
:10815000000000000000000000000000000000001F
:10816000000000000000000000000000000000000F
:1081700000000000000000000000000000000000FF
:1081800000000000000000000000000000000000EF
:1081900000000000000000000000000000000000DF
:1081A00000000000000000000000000000000000CF
:1081B00000000000000000000000000000000000BF
:1081C00000000000000000000000000000000000AF
:1081D000000000000000000000000000000000009F
:1081E000000000000000000000000000000000008F
:1081F000000000000000000000000000000000007F
:10820000314932480A1A02D0072291438D4630493B
:1082100030480A1A06D00722914381F309880222C6
:1082200082F314882C482D492D4A00F03CF82D4843
:108230002D492E4A00F037F82D482E492E4A00F0DD
:1082400032F82E482E492F4A00F02DF82E482F499B
:108250002F4A00F028F82F482F49304A00F023F821
:108260002F483049304A00F01EF83048304900228B
:1082700000F024F82F483049002200F01FF82F4A60
:1082800090471F481F49884205D00268043003B454
:10829000904703BCF7E700208646EC46002000210B
:1082A000274A9047FEE7884207D0521A05D0037844
:1082B00001300B700131013AF9D17047884202D088
:1082C00002700130FAE770470000012000E0002052
:1082D000000001200000012060DA070014400020A7
:1082E0004C400020BC830700BC83070036D5070044
:1082F00060DA07001440002014400020A4D50700D5
:10830000A4D50700A4D50700A4D50700A4D507006D
:10831000A4D50700A4D50700A4D5070060DA07009C
:1083200098DA07004C4000204C4000204C400020D0
:10833000FC650020FC650020FC6500206D830700C3
:10834000399C07001048804710484FF007018843C8
:1083500085460F4880470F48016841F4700101606D
:10836000BFF34F8FBFF36F8FFFF74ABF0A480B4928
:108370000B4A884207D0521A05D0037801300B709F
:108380000131013AF9D17047B9830700000001209B
:1083900059B4070088ED00E090D5070000400020A8
:1083A00014400020FEE7FEE7FEE7FEE7FEE7FEE7FB
:1083B000FEE7FEE7FEE7FEE7704700BF4B1C30B567
:1083C000DB00044612F003009BB20DD1074D2A607A
:1083D0001A44074B1A60074B1870074B1870074B6D
:1083E0001C80074B198030BD0720FCE7544000205B
:1083F000504000204C4000205C40002058400020AD
:108400005A4000202DE9F3472B4D2B888B4206461E
:108410000C4617464CD34FF000080DF107008DF8BD
:10842000078000F087F8254B254A18781178CBB2E1
:10843000244909888B4238BF0133C0B238BF5FFA84
:1084400083F840452ED092F800801378DBB2994231
:1084500086BF0133DBB2002313709DF8070000F0E4
:108460008DF84FF6FF73984524D0DFF860A0DAF856
:1084700000304FEAC80903EB090243F83870A6B18F
:108480009CB1114B28881B68224608FB00303146FE
:1084900004F0C5FFDAF800304B4400209C8002B0A5
:1084A000BDE8F0874FF6FF78D7E700209080F6E729
:1084B0000920F4E70420F2E7584000205C40002047
:1084C0004C4000205A4000205040002054400020E2
:1084D000F8B5124C124D264622782B789A4200D1DC
:1084E000F8BD23780F48104A078812680F48DBB29E
:1084F00019B202EBC10C006852F83120BCF804102C
:1085000003FB070090470A4A23781288DBB29A429D
:1085100086BF0133DBB200233370DDE75C4000200F
:108520004C40002058400020544000205040002083
:108530005A40002070B5EFF3108672B60C4A94686A
:1085400001239CB993600B4B0B4DD3F8801029404D
:108550001160C3F88050D3F8841051604FF0FF329F
:10856000C3F88420047006B962B670BD0370FAE7E0
:108570006040002000E100E0FC06FFBD084B9A6867
:1085800010B55AB150B9EFF3108172B6054A1C68A4
:1085900014605C685460986001B962B610BD00BF99
:1085A0006040002000E100E030B53AB11368DB43E1
:1085B0000A4D0144814204D1D84330BD4FF0FF330E
:1085C000F6E710F8012B5340082213F0010418BFFE
:1085D0002C46013A84EA5303F7D1EBE72083B8ED48
:1085E00010B561B1B2FBF3F403FB1424A4B244B997
:1085F000C0E9001484608281C381204610BD0E2032
:10860000FCE70920FAE782B050E8022FC188B2EBFC
:10861000324F4FF0000317BF92B241EA014142EAE4
:10862000014104E04268B2EB324F08BF012340E849
:108630000212002AE8D18DF807309DF80730002B90
:108640000CBF1120002002B0704737B550E8013F41
:108650009DB2C48925448489A54228BF2D1B048965
:10866000A54202BFBFF32F8F002207E0C5EA030532
:1086700040E80154002CE9D14FF001028DF80320AD
:108680000193019B9DF803200B6002F0FF0322B1D0
:108690000B880068184403B030BD1846FBE70A8811
:1086A0004B889A4209D150E8012FC2EA024240E8C1
:1086B0000123002BF7D1012070470020704737B508
:1086C00050E8023F1FFAA3F5C488A54202BFBFF3DA
:1086D0002F8F00220DE0C48925448489A54228BF3C
:1086E0002D1BC3EA054540E80254002CE8D14FF0A9
:1086F00001028DF803200193019B9DF803200B607C
:1087000002F0FF0322B14B880068184403B030BD6B
:108710001846FBE70A884B889A4209D150E8022F95
:10872000C2EA224240E80223002BF7D10120704721
:108730000020704750E8002F42EA010340E8003C67
:108740009CF0000FF6D11046704750E8003F03EA56
:10875000010240E8002C9CF0000FF6D11046704753
:108760000121FFF7E7BF0021FFF7EFBF10B590B180
:10877000D0E9012301689B1ADBB20A60013BDBB23E
:10878000FF2B026802D10020107110BD11684C1C33
:1087900014600B70F2E70E20F7E737B505460024AA
:1087A0000DF107008DF80740FFF7C4FE2A686B68DB
:1087B000116899420ED9481E106011F8014CEB68FF
:1087C000298A01FB0434AB6811791B1ADBB2994288
:1087D00038BF13719DF80700FFF7D0FE204603B0A5
:1087E00030BD37B5054600230DF107000C468DF866
:1087F0000730FFF79FFE2A681368591C1160E9686B
:10880000641A298AB4FBF1F41C709DF80700FFF785
:10881000B5FE03B030BD01600B681146184710B4B7
:108820000468E468A4465DF8044B604710B404682B
:108830002469A4465DF8044B6047000070B508B198
:108840000368ABB90C4D0D4C0026641B1423B4FB1C
:10885000F3F4B44201D1002009E02B6813B90136CA
:108860001435F6E7DB69284698470028F7D070BD35
:10887000DB69BDE87040184700400020144000202C
:10888000014B436000207047A4D50700084670479D
:1088900000207047024B1868003018BF0120704755
:1088A0006C40002008B50248FFF75DFF002008BDBE
:1088B0006C40002008B510461A4604F0B0FD0020B8
:1088C00008BD00002DE9F043814687B014480F46EB
:1088D00016469846FFF744FF0446F0B90546AE42F7
:1088E00015D10F48FFF73FFFD9F808305BB10222DE
:1088F0008DF800200022CDE90127CDE90326CDF82F
:10890000148068469847204607B0BDE8F08307EB1F
:10891000053001F02BF80135E1E71124F3E700BF42
:108920006C4000202DE9F041804686B011480F468A
:1089300016461D46FFF714FF0446C8B9AA0831467B
:10894000384601F02BF80B48FFF70DFFD8F8083038
:1089500053B101228DF800200C9A0592CDE9014710
:10896000CDE9036568469847204606B0BDE8F0812A
:108970001124F9E76C40002029DF704728DF704799
:1089800070B503689D6886B004460E466DB114222A
:108990000021684604F06CFDA368059323790196D5
:1089A0002BB1012B0DD06846A84706B070BD01233E
:1089B0008DF8003023690293E3680393636904939D
:1089C000F1E702238DF80030E3681B030293F5E71B
:1089D0000846704700207047024B187A003018BFD5
:1089E000012070475C420020034B187A0122B0FA44
:1089F00080F05A74400970475C42002008B5104668
:108A00001A4604F00CFD002008BD000008B5142231
:108A10000021044804F02CFD0348FFF7F4FD00207A
:108A200008BD00BF5C4200204C42002010B5094C3C
:108A3000094B43602046FFF793FE48B904F0C8FB9A
:108A40001C2320744FF4EE7204490548FFF7C8FD5B
:108A5000002010BD5C420020D0D5070070400020EF
:108A60004C42002070B5234C234E237A25463BB957
:108A700022492348FFF723FE306008B9606070BDCB
:108A8000346802232B72237973B1012B22D0204644
:108A90000321FFF775FF00232B726B6017491848FD
:108AA000BDE87040FFF736BED4E90523D21A142A78
:108AB00028BF1422D4E903109208012A38BF0122EA
:108AC00019441844FFF758FF50B11128DFD1012392
:108AD0002B72D4E7D4E903031844FFF74FFFF3E701
:108AE0002B7C002BCBD10146BDE87040022000F06A
:108AF00009B800BF5C420020744200207042002090
:108B00004C42002038B5831E012B43D8224C237AD7
:108B1000002B3FD0022B09D103282ED01F4B1B68FE
:108B20000022E2601A793AB1012A20D0637C6BBB43
:108B3000BDE83840FFF796BFD3E905128D1A142D12
:108B400094BF521914329A619142EFD102284FF02A
:108B5000000308BF19462372104B18BF0D21186877
:108B6000FFF70EFF0E490F48FFF7D4FDDEE71A6945
:108B700001321A615B699A42E7E7E3680133082B27
:108B800001D8E360D2E70023E360DFE7BDE83840C7
:108B900004F00EBB38BD00BF5C42002074420020D0
:108BA000704200204C42002000F0FD03012B08D150
:108BB000044B00225A74421E504250411874FFF771
:108BC00051BF70475C42002010B5064C201DFFF7D6
:108BD000C7FD28B9637C1BB9BDE81040FFF742BF51
:108BE00010BD00BF5C4200202DE9F34180460D46D8
:108BF0000F4801A916461F46FFF727FD0446A8B1F6
:108C00001C22002104F034FC2D0B0123237101A947
:108C1000C4F80080A760E56066610548FFF73FFD86
:108C2000FFF7D2FF002002B0BDE8F0810420FAE790
:108C30004C4200202DE9F74381468846104801A99F
:108C400017461E46FFF701FD0446B0B11C22002165
:108C500004F00EFC00250A9BA36001A92571C4F84D
:108C60000090C4E9037866610548FFF718FDFFF737
:108C7000ABFF284603B0BDE8F0830420FAE700BF4D
:108C80004C4200200B684A684360934208BF0023AF
:108C9000016008BF43607047436843B10268916850
:108CA00052680B449342436004BF00234360704703
:108CB0002DE9F04FC9B008AA01F1400514464B78E0
:108CC0000E781B0443EA0663CE7833438E78043172
:108CD00043EA06238D4244F8043BF0D11024916B03
:108CE00016464FEAF14383EA714383EA9123716A9E
:108CF000366852F8045F31440B444FEAB54181EACB
:108D0000F51181EAD50101340B44402CD363E6D13F
:108D1000D0E914E30093836D0193C36D0293036E56
:108D20000393436E0493836E0593C36E0693DDE94C
:108D3000057BDDE9031CDDE901592B4B009E079300
:108D400074464FF00008079B53F8042B07934FEA33
:108D5000F12383EAB11383EA716A08AB53F8283030
:108D60001A440AEB020327EA010A01EA0C028AEA22
:108D700002021A444FEA743A86EA05035A448AEA20
:108D8000B40A06EA050B234083EA0B038AEAB45AC5
:108D900008F101089A44B8F1400F02EB0903BB4601
:108DA0005244A94619D172440265009A2244426590
:108DB000019A32448265029A2A44C265039A1A448F
:108DC000049B02660B444366059B63448366069BD3
:108DD0003B44C36649B0BDE8F08F674635468C46D4
:108DE000264619461446AEE7FCD5070030B5E0B17B
:108DF0000F4A104900240025C0E91245C0E91412A9
:108E00000D4C0E4A0E4DC0E916420E4AC0E91852EA
:108E10000D4A826602F17452A2F523020023A2F6E3
:108E200092420364C266184630BD0E20FCE700BFC4
:108E300085AE67BB67E6096A72F36E3C3AF54FA5EB
:108E40007F520E518C68059BABD9831FF8B5044641
:108E5000F0B10AB90020F8BDD1B10D468E18002737
:108E6000B542F7D0236C15F8012BE2540133402BA7
:108E70002364F5D121462046FFF71AFFD4E91231C9
:108E800013F5007341F10001C4E912312764E7E7EB
:108E90000E20E0E770B50D4616460446002877D050
:108EA000002975D0026C8021372A02F10103815418
:108EB0004FF0000242D8382B3BD1D4E91223206C6A
:108EC0000821E1FB0023104612BAE2631A0A194690
:108ED00084F83B3084F83A201A0C1B0EC4E91201C6
:108EE00084F83920214684F838302046FFF7E0FE28
:108EF000691E76B30023E26EDA4001F8012FA26EFC
:108F0000DA400A71626EDA400A72226EDA400A733F
:108F1000E26DDA400A74A26DDA400A75626DDA40D9
:108F20000A76226DDA400833202B0A77E3D100203D
:108F300070BDE2540133BEE7E25401333F2BFBD94D
:108F400021462046FFF7B4FE3822002104F090FAB3
:108F5000B3E71823226DDA4001F8012F626DDA4081
:108F60000A71A26DDA400A72E26DDA400A73226E6B
:108F7000DA400A74626EDA400A75A26EDA400A7646
:108F8000E26EDA40083B13F1080F0A77E2D1CEE730
:108F90000E20CDE743689B68184708B54368083042
:108FA0005A7900F018FE002008BD2DE9F0430D4667
:108FB0009BB0084699469046FFF7ECFF6E687479BF
:108FC0004C4528BF4C4607462246414602A800F0C1
:108FD000F7FD727922990AA800F0FDFD00970AAB0F
:108FE000224602A905F1080001F0A8FC002848F279
:108FF000425018BF00201BB0BDE8F0830023C0E939
:1090000002328B881A44B1F9063002611A44C0E971
:10901000001142610888003018BF01207047426883
:10902000118838B50346002937D0148A02F110019F
:1090300041602CB9C2680168FFF7E0FF204638BDE7
:109040009078118900F03005302D14D1947C04F013
:109050003004302C1BD190881969091A196100213C
:10906000908AB2F916200844196901441961114423
:1090700059610120E3E700F0F004202C07D150896A
:109080004143002DECD1986801309860E8E700F08A
:10909000C000802808BF0421F3E70846CFE770B579
:1090A000456804460E4663681A88B24204D19B782C
:1090B00003F00F03082B07D12046FFF7B0FF6368CA
:1090C000AB42F0D1002070BD0120FCE743681A4498
:1090D000426011B101399A4201D10120704713F861
:1090E000010B01F8010FF6E783682DE9F34104460F
:1090F000884623B90027384602B0BDE8F0810368EE
:1091000001220DF10701984707460028F2D0A36815
:109110009DF80750013B2A06A3601AD505F07F058C
:109120000726A368002BE5D0236801220DF1070173
:10913000204698470028DDD0A3689DF80720013B12
:10914000A36002F07F03B3401D43130606F1070638
:1091500002D4C8F80050CEE7232EE2D1CAE770B59A
:109160004568AA7802F00F06082E86B003461FD184
:1091700003691C6800260CB906B070BD23686268DC
:109180009D68267329466846FFF738FF6368049395
:1091900004F10C030593AB7803F0C003802B08BFE8
:1091A000231D684608BF0493FFF7D9FFA468E2E7D0
:1091B00012F0C0011CD102F0300010280AD15A6907
:1091C0001170072EEC68186909D10146204600F09D
:1091D00017F8D1E79006F4D55B691980CCE72A89A6
:1091E000214614B104F01BF9C6E704F041F9C3E7C6
:1091F0008029C1D10069002192060160BCD5EBE74E
:109200007FB50A4601466846FFF7F8FE30B168466A
:10921000FFF7A5FF6846FFF702FFF7E707B05DF825
:1092200004FB000030B5044685B01546A9B90268B4
:10923000114B9A4211D0102D06D82A466946204675
:10924000FFF7F0FF05B030BD102269462046FFF75A
:10925000E9FF0028F6D0103DEDE7A368AB4201D24C
:109260000020EFE723682A46204698470028F7D0D9
:10927000A3685D1BA560E5E7CD900700F7B50E4636
:1092800001A907461546FFF72FFFA8B1019A012350
:10929000D3184FF0000404D2B17801F0C001802946
:1092A00001D1204608E031899942FAD3294638464F
:1092B000FFF7B8FF019BEC5403B0F0BD73B50E4649
:1092C00001A905461446FFF70FFFB8B1019BB3F59E
:1092D000803F07D202229A1804D2B17801F0C0016F
:1092E000802901D1002009E031899142FAD3214639
:1092F0001A4621F8023B2846FFF794FF02B070BDE2
:1093000010B5034C82600022C0E90041C26010BD6C
:10931000CD9007002DE9F3470025064688462F46E5
:109320002C46B36843B3336801220DF10701304680
:10933000984708B3B3689DF807C0013B0CF07F0263
:109340005FFA82F9C4F12001B360A4F1200309FAA5
:1093500003F329FA01F109FA04F20B431CF0800F20
:1093600045EA020547EA030704F1070402D1C8E908
:10937000005702E0462CD4D1002002B0BDE8F087AF
:1093800073B50C4669461646FFF7C4FF68B12389DA
:10939000082B0CD1DDE90045C6E90045DDE90023D5
:1093A000AB4206BFA2420120002002B070BD042BD8
:1093B00004D1009B33601C460025EFE7022B4FF0E1
:1093C000000004D1009B33809CB20546E6E7012BE8
:1093D000EBD1009B337003F0FF04F6E737B50D4681
:1093E00069461446FFF796FF30B12A89082ADDE95D
:1093F000003103D1C4E9003103B030BD042A18465E
:109400004FEAE37108D123601A460B468B4206BF30
:10941000824201200020EFE7022A04D11BB2238000
:109420001AB2D317F2E7012A03D15BB223705AB202
:10943000F7E70020E0E7F7B50C460021197021702E
:10944000116001A9074615461E46FFF74DFE30B9CB
:10945000BB6813B901233370002003B0F0BD01993C
:109460000029F7D0CB0801F007012B602170F4E749
:1094700013B5044605291FD8DFE801F0030F151EB8
:109480001E1C012201A92046FFF7CCFE18B19DF950
:109490000430002BF5DB02B010BD0822002120466D
:1094A000FFF7C0FEF7E701A9FFF71EFE0028F2D084
:1094B000019AF3E70422F1E70020ECE773B50D46CB
:1094C00001A90446FFF710FE064618B900263046EB
:1094D00002B070BD94E80F0085E80F0001998A4240
:1094E000F4D3A960A3685B1AA360F0E72DE9F04309
:1094F0005568AB7813F0C00489B006468C46174611
:1095000003D0402C67D000240AE003F00F025D492D
:1095100003F03003102B51F822801BD004D8E3B1A4
:10952000204609B0BDE8F083202B1BD0302BF7D1AB
:109530007B6929881980072A09D121462A89386937
:1095400003F096FF7B683969D868FFF759FE3A69DE
:1095500079683EE07B6901221A703A692946C04762
:109560000446DDE7BCF1020FD7F8149024D1042A99
:1095700022D804A9FFF7A2FF04460028C3D0069B07
:109580002BB17968B9F800304A899A4205D8059B11
:109590007360069B002BC3D0B5E708893A6903FBCB
:1095A000002204A8C04728B1B9F800300133A9F857
:1095B0000030E4E70446EAE7B9F800306A899A42E5
:1095C000A1D929893A69581C03FB0122A9F8000096
:1095D00029463046C3E7D2F81080454655F8043B8B
:1095E00013B9FFF745FFBBE7022914D104A9FFF720
:1095F00065FF002887D0D8F8003079682A4604A88B
:109600009847044600283FF47EAF069B002BF2D11A
:10961000059B736084E701292BD04CB24CB105291E
:109620007FF471AF04220DEB0201FFF7FBFD042470
:1096300024E00DF1040901340B2C3FF464AF012246
:1096400049463046FFF7EEFD00283FF45CAF19F9BC
:10965000013B002BEFDB0C4B049301ABCDE9053450
:10966000002307932A46D8F80030796804A8984761
:1096700076E7082201A9FFF7D5FD08240028EAD1E2
:1096800041E700BF08D70700CD9007002DE9F04F54
:1096900091B00446002604A8CDE90266FFF7AEFCAF
:1096A000A3683BBBDDE9053404A89D78FFF7B7FC50
:1096B0000028F7D115F0300F03D1059B1B8803B1AB
:1096C0000134002C00F0A9806309002202A9934212
:1096D00040F09C8010AA02EB830304F01F04C4F145
:1096E00020044FF0FF3053F8383CE040C31A584292
:1096F00058410DE00DF1030301AA0DF102012046CE
:10970000FFF799FE38B99DF80330002BCAD100202D
:1097100011B0BDE8F08F019904A8FFF7C0FC002844
:1097200050D1019BB3427DD3059D059A937803F0F8
:109730000F03082B7FD004A8FFF771FC059B9D4207
:10974000F3D14FF0FF36019FB7426BD3089B9DF8D2
:109750000290D4F808801D684FF0010AA368002D1C
:109760005DD098459CD12B68D3F800B0BBF1000FB9
:1097700008D04B463A4629462046D8470028C6D04E
:10978000AD68EBE7D3F808B0BBF800309F42F7D1E3
:109790006A6859460AA8FFF731FC6B680E9305F119
:1097A0000C030F939BF8023003F0C003802B04BF1F
:1097B0002B1D0E930AAA85F80CA049462046FFF7F8
:1097C00095FEDBE7059B9B7813F0300F0FD1069ACF
:1097D0003F2A0CD8510910AB03EB810102F01F02A4
:1097E0000123934051F8382C134341F8383CE56885
:1097F0002DB104AB9DF8022001992046A84704AA88
:109800009DF802102046FFF771FE10E051F822503B
:1098100001357FF47DAF013259E7012078E79845A3
:109820007FF43EAF9DF802102046FFF721FE00288E
:109830007FF436AF6BE7168885E770B50C460646B1
:10984000154611462046FFF7DBFC2A4621463046E6
:10985000BDE87040FFF71ABFF0B585B00C46CD6883
:10986000694607461646FFF729FE68B1E06858B119
:10987000A37803F03003202B32462946684605D1F1
:10988000FFF7DBFF019B7B6005B0F0BDFFF7FEFE3D
:10989000F8E7D3B50C466946FFF73CFD80B1DDE93A
:1098A000001300274A0801F0010642EAC37256EA93
:1098B00007014FEA53031CBFD243DB43C4E9002333
:1098C00002B0D0BD37B50D4669461446FFF7E1FF3B
:1098D00068B12B89082B0CD1DDE90001C4E9000136
:1098E000DDE900238B4206BF82420120002003B045
:1098F00030BD042B03D100982060C117F0E7022B84
:1099000004D1BDF90000208000B2F6E7012B04D19C
:109910009DF90000207040B2EFE70020E7E713B5A3
:1099200004220C460DEB0201FFF77CFC08B1019B01
:10993000236002B010BD1146FFF7F1BF13B5082236
:109940000C466946FFF76EFC18B1DDE90023C4E957
:10995000002302B010BD1146FFF7F0BF024AD2F853
:109960000034002BFBD0704700E001400A4908B5E5
:109970000223C1F80435BFF36F8FBFF34F8FC1F8D7
:109980000805FFF7EBFF0023C1F80435BFF36F8F25
:10999000BFF34F8F08BD00BF00E001400E4B10B574
:1099A0000124C3F80445BFF36F8FBFF34F8F01EB62
:1099B0008204401AA14208D1074B0022C3F80425B3
:1099C000BFF36F8FBFF34F8F10BD431851F8042BB7
:1099D0001A60FFF7C3FFEDE700E0014028B139B19D
:1099E0000023C1E900301846704748F21050704714
:1099F00048F21350704730B1036848F240508B4230
:109A000008BF0020704748F21050704728B148F254
:109A10001150914208BF0020704748F21050704723
:109A200070B506460C461D46FFF7D8FF50B9B3790E
:109A30004AB1AB420AD111462046FFF7AEFA08B947
:109A4000044B236070BD48F21050FBE748F2115000
:109A5000F8E700BF7052464D2DE9F0470C46074627
:109A60000F49204615469846DDE90869FFF7C3FF10
:109A700098B963685A79494652003046FFF7C6FFE5
:109A800058B945B1089643462A4621463846BDE8AE
:109A9000F047FFF78ABA48F21050BDE8F08700BFE0
:109AA0007052464D10B5044638B149B141600B685B
:109AB000984708B9044B236010BD48F20150FBE7FA
:109AC00048F21050F8E700BF6E524648F0B4134613
:109AD00048B10768094EB7420AD161B12AB143685B
:109AE000F0BC5B68184748F201531846F0BC704759
:109AF00048F20253F9E748F21053F6E76E5246482F
:109B0000F0B460B107680C4EB7420CD171B1436834
:109B10001568DC68A5420CD39B68F0BC184748F276
:109B20000150F0BC704748F20250FAE748F2135077
:109B3000F7E748F21450F4E76E5246482DE9F04139
:109B4000044617469846DDE90656FFF7ABFF60B9B5
:109B5000424639462046FFF7B9FF30B9324629461A
:109B60002046BDE8F041FFF7CBBFBDE8F081000023
:109B7000F8B50A4F0A4C0B4DE41B0121E40829708B
:109B80000026A64203D102232B700020F8BD57F80F
:109B9000363098470028F9D10136F2E738D507006A
:109BA00038D507007842002001390144814200D2B3
:109BB000704703780A7800F8012B01F80139F5E7BE
:109BC000013A02440139824200D2704711F8013F44
:109BD00002F80139F7E770B516460D46FFF7F0FFBA
:109BE0003246A9193044BDE87040FFF7E9BF38B5E7
:109BF0000D460446FFF7D8FF29466019BDE83840F6
:109C0000FFF7D2BFBFF34F8F0549064BCA6802F476
:109C1000E0621343CB60BFF34F8F00BFFDE700BF8F
:109C200000ED00E00400FA05704708B5FFF7EAFF11
:109C300008B5FFF7E7FF00000022104610B54FF40B
:109C4000805101F001F9024608B1FFF7DBFF084837
:109C5000C0F5FC2101F0F8F80028F6D1054801F024
:109C600019F804460028F0D101F0DCF8204610BDB8
:109C700000800700299C07008B1810448B4200D1FC
:109C8000704713F8012D00F8012DF7E700000000E0
:109C9000C3F10803DB0070B501330446002003A5BF
:109CA0005B1920C940CAAD1920C4184720C940CA51
:109CB000754120C420C940CA754120C420C940CA8A
:109CC000754120C420C940CA754120C420C940CA7A
:109CD000754120C420C940CA754120C420C940CA6A
:109CE000754120C4404170BD00000000000000002C
:109CF000C3F10803DB0070B50133002403A500BFE6
:109D00005B1920C940CAAD1B20C0184720C940CAF2
:109D1000B54120C020C940CAB54120C020C940CAB1
:109D2000B54120C020C940CAB54120C020C940CAA1
:109D3000B54120C020C940CAB54120C020C940CA91
:109D4000B54120C06441B4FA84F0400970BD00BF41
:109D50002DE9F04F08B4F8CA04B451F8042BA3FB62
:109D6000028940F8048B4FF0000AE4FB629A4FF03E
:109D7000000BE5FB62AB4FF0000CE6FB62BC4FF062
:109D8000000EE7FB62CE51F8042B4FF00008E3FB16
:109D9000628940F8048BE4FB629AE5FB62ABE6FB68
:109DA00062BCE7FB62CE51F8042B4FF00008E3FBE6
:109DB000628940F8048BE4FB629AE5FB62ABE6FB48
:109DC00062BCE7FB62CE51F8042B4FF00008E3FBC6
:109DD000628940F8048BE4FB629AE5FB62ABE6FB28
:109DE00062BCE7FB62CE51F8042B4FF00008E3FBA6
:109DF000628940F8048BE4FB629AE5FB62ABE6FB08
:109E000062BCE7FB62CE40F8049B40F804AB40F82C
:109E100004BB40F804CB40F804EB0CBC052B00F06D
:109E20001E810C68A0F11400A1F11401A2F114022A
:109E300052F804EB4FF0000550F8046BE4FB6E564B
:109E400052F804EB50F8047BE4FB6E6752F804EB25
:109E500050F8048BE4FB6E7852F804EB50F8049B46
:109E6000E4FB6E8952F804EB50F804ABE4FB6E9A05
:109E7000A0F1140052F8044B51F804EB4FF0000C21
:109E8000E4FB6EC540F804CB51F804EBE4FB6E56DE
:109E900040F8045B51F804EBE4FB6E6740F8046B98
:109EA00051F804EBE4FB6E7840F8047B51F804EBC6
:109EB000E4FB6E8940F8048B51F804EBE4FB6E9AE6
:109EC000A0E80006062B00F0CA800C68A0F118007C
:109ED000A1F11801A2F1180252F804EB4FF00005AD
:109EE00050F8046BE4FB6E5652F804EB50F8047B18
:109EF000E4FB6E6752F804EB50F8048BE4FB6E78D9
:109F000052F804EB50F8049BE4FB6E8952F804EB22
:109F100050F804ABE4FB6E9A52F804EB50F804BB23
:109F2000E4FB6EABA0F1180052F8044B51F804EBBF
:109F30004FF0000CE4FB6EC540F804CB51F804EB85
:109F4000E4FB6E5640F8045B51F804EBE4FB6E67EB
:109F500040F8046B51F804EBE4FB6E7840F8047BA6
:109F600051F804EBE4FB6E8940F8048B51F804EBE4
:109F7000E4FB6E9A40F8049B51F804EBE4FB6EABF3
:109F8000A0E8000C072B6AD008B40C68A0F11C00F4
:109F9000A1F11C01A2F11C0252F804EB4FF00005E4
:109FA00050F8046BE4FB6E5652F804EB50F8047B57
:109FB000E4FB6E6752F804EB50F8048BE4FB6E7818
:109FC00052F804EB50F8049BE4FB6E8952F804EB62
:109FD00050F804ABE4FB6E9A52F804EB50F804BB63
:109FE000E4FB6EAB52F804EB50F804CBE4FB6EBC20
:109FF000A0F11C0052F8044B51F804EB4FF00003A1
:10A00000E4FB6E3540F8043B51F804EBE4FB6E567C
:10A0100040F8045B51F804EBE4FB6E6740F8046B16
:10A0200051F804EBE4FB6E7840F8047B51F804EB44
:10A03000E4FB6E8940F8048B51F804EBE4FB6E9A64
:10A0400040F8049B51F804EBE4FB6EAB40F804AB22
:10A0500051F804EBE4FB6EBCA0E8001808BCBDE8B6
:10A06000F08F002310B51C465AB2914200DC10BD9F
:10A0700040F823400133F7E710B500231A465CB2DD
:10A08000A14203DCB2FA82F0400910BD50F823402F
:10A0900001332243F3E74A11012350F8220001F073
:10A0A0001F0103FA01F108407047013910B502465B
:10A0B00049B2041D0806CBB204D4013954F821007A
:10A0C0000028F7D0013358B250B100F18043013B72
:10A0D00052F82320002322B9013803EB401000B2CC
:10A0E00010BD52080133F6E710B500235CB2A2425E
:10A0F00000DC10BD51F8234040F823400133F5E760
:10A1000010B5013A52B2130601D5002010BD50F827
:10A11000224051F822309C4205D802F1FF32F2D29F
:10A120004FF0FF30F2E70120F0E700EB8101002360
:10A13000884200D3704751F8042D43EA52030B6064
:10A14000D307F5E770B59DF910601D463346044608
:10A15000FFF79EFD30B9324621462846FFF7D0FF73
:10A16000012807D033462A4621462046BDE87040E4
:10A17000FFF7BEBD70BD70B59DF910601D4633463A
:10A180000446FFF7B5FD38B133462A46214620463E
:10A19000BDE87040FFF77CBD70BD2DE9F04FB5B054
:10A1A00004AC9DF9F8501F4680462B462046FFF729
:10A1B000CFFD24AB29463846CDE90234FFF775FFC1
:10A1C000C0EB851424B2002C2146B8BF04F11F0156
:10A1D000634203F01F0341F3471104F01F0614A864
:10A1E00058BF5E42FFF73DFF002E08B22BDD14ABD7
:10A1F000002203EB8000C6F1200E1346AB4217D3BA
:10A200006B00019314AB03EB85096F1E34AB012681
:10A2100003EB8707002C54DA34AB03EB86062A469F
:10A2200056F8C81C4046FFF75FFF35B0BDE8F08F19
:10A2300057F823C00CFA06F10A4340F8042B013307
:10A240002CFA0EF2DAE714AB2A46394603EB80000B
:10A25000FFF74AFFD4E70FFA82FE5AF8C83C53F8DA
:10A260002EB034AB03EB8202013052F8803C0B4439
:10A27000BBEB030334BF012200229B4518BF1146EC
:10A280005CF8C82C42F82E30019B42B29A42E2DBC5
:10A29000731A5E42294614A85E41FFF746FF34ABAD
:10A2A00003EB8503294653F8802C57F8803C43EA9A
:10A2B000C27347F8803C4846013CFFF736FF24B2A2
:10A2C000A8E734AB0020C6F1010C014603EB860A77
:10A2D00003EB8C0CD8E730B51C4691B0054693F9DA
:10A2E00000306846FFF734FDD4F8AC3069462846A4
:10A2F000984711B030BD13460A46FFF7ECBF2DE971
:10A30000F04793F9006092B0044689461046314602
:10A3100015461F46FFF7B0FE002840F091803A46F0
:10A32000494602A8FFF7E7FF3B4602AA21460AA8D2
:10A33000FFF7D1FF02A908463A46FFF7DCFF3B468C
:10A340002A4649464846FFF7C6FF07F104083A4641
:10A3500029462846FFF7CFFF43462A462146204696
:10A360000096FFF7EFFE43462A4629462846009608
:10A37000FFF7E8FE43462A46214628460096FFF7A7
:10A38000FAFE3B462A4621462046FFF7A4FF4346F5
:10A390002246214628460096FFF7D4FE4346009603
:10A3A0002A4621462046FFF7CDFE2368DB074AD523
:10A3B0003346424621462046FFF76AFC3146824634
:10A3C0002046FFF7B2FE06F18043013B54F82320FC
:10A3D00042EACA7244F823203A4621462846FFF74B
:10A3E0008AFF43460AAA294628460096FFF7C3FE7D
:10A3F00043460AAA294628460096FFF7BCFE0AA94A
:10A40000084643462A460096FFF7B5FE3B460AAA91
:10A4100021462046FFF75FFF02AA43461046214629
:10A420000096FFF7A8FE324629462046FFF75CFE5D
:10A4300049462846FFF758FE02A94846FFF754FE52
:10A4400012B0BDE8F08731462046FFF76EFEC3E745
:10A450002DE9F04115468AB004460E461C22002123
:10A4600003A803F005F82F1D95F9008003232A4661
:10A47000314620460293FFF73EFF3B4602AA2146A3
:10A480002046CDF80080FFF776FE2B463246214667
:10A490002046FFF720FFCDF800803B4605F18402FF
:10A4A00021462046FFF74EFE0AB0BDE8F0810000CD
:10A4B000F0B5082289B0FFF717FECB6A03930B6B48
:10A4C00004934B6B05938B6B0693CB6B07930C46F6
:10A4D00006460027134669466A466846CDE9017775
:10A4E0000097FFF7D5FB082305466A4631463046FC
:10A4F000FFF7CEFB236B0393636B0493A36B05936E
:10A50000E36B0544CDE906376A4608236946684689
:10A51000FFF7BEFB082305446A4631463046FFF785
:10A52000B7FB236A0093636A0193A36A0293A36B48
:10A530000693E36B0793054408236A463146304689
:10A54000CDE904770397FFF7A3FB636A0093A36A3F
:10A55000A26B0193E36A02930492636BE26B039331
:10A56000CDE90523236A0793054408236A4631464B
:10A570003046FFF78DFBE36A0093236B0193636B17
:10A580000293236A0693A36A0793054408236A4645
:10A5900031463046CDE904770397FFF7A9FB236BDB
:10A5A0000093636B0193A36B0293E36B0393636A62
:10A5B0000693E36A07932D1A08236A46314630460C
:10A5C000CDE90477FFF794FB636B0093A36B0193D2
:10A5D000E36B0293236A0393636A0493A36ACDE94E
:10A5E0000537236B07932D1A08236A4631463046F8
:10A5F000FFF77EFBA36B0093E36BCDE90137636A42
:10A600000393A36A0493E36ACDE90537636B079369
:10A610002D1A08236A4631463046FFF769FB2D1A8A
:10A620000D4C0FD435B9082231462046FFF768FD9E
:10A6300001280FD00823224631463046FFF758FB49
:10A640002D1AEFE70823224631463046FFF720FB5C
:10A650002D18F7D409B0F0BD70D70700F0B5154636
:10A6600089B01C4607460E461A4629466846FFF73B
:10A6700042FE23466A4639463846FFF72CFE2346FB
:10A680002A4669466846FFF726FE23466A46314653
:10A690003046FFF720FE09B0F0BD2DE9F0478AB043
:10A6A0001446DDF848A055461F4615F9046B009680
:10A6B000804689462B460246214602A8FFF75BFDED
:10A6C00002A952460846FFF716FE534602AA414623
:10A6D0004046FFF700FE534602AA21462046FFF7F8
:10A6E000FAFD2B464A46394638460096FFF743FDA9
:10A6F0005246394602A8FFF7FEFD02A92B46424604
:10A7000008460096FFF737FD02A92B462246084669
:10A710000096FFF730FD2B46424621462046009624
:10A72000FFF729FD5346224649464846FFF7D3FD29
:10A730002B4602AA414620460096FFF71CFD5346D1
:10A74000224639463846FFF7C6FD2B464A4639466B
:10A7500038460096FFF70FFD324602A92046FFF764
:10A76000C3FC0AB0BDE8F0872DE9F0471F46B3F9F6
:10A77000023013F11F0448BF03F13E04DD1D48BF42
:10A7800003F10E056611EC10944275B228BF144611
:10A7900089462946FFF765FC224649468046FFF771
:10A7A0006BFAB7F90230B3EBC40F4FEAC4021FD201
:10A7B000D21A08EB86040021C2F12006A0450ED370
:10A7C00024372A4641463846FFF79AFC01280FD025
:10A7D0002B463A464046BDE8F047FFF789BA54F8A1
:10A7E000040D20FA02F30B43236000FA06F1E5E7BB
:10A7F000BDE8F08770B5036813F0010605461446FE
:10A8000005D013460A460146FFF742FA064621469E
:10A810002846FFF78AFC46B104F18042013A55F818
:10A82000223043F0004345F8223070BDF0B50F46AA
:10A83000A1B006461946384615461C46FFF71CFCD3
:10A8400028B1304621B0BDE8F040FFF70ABC2246EF
:10A8500039466846FFF748FC294608A8FFF744FC3C
:10A8600010A82146FFF7FDFB012318A81093FFF75E
:10A87000F8FB224608A96846FFF742FC30B9224699
:10A8800010A93046FFF730FC21B0F0BD009BDA077D
:10A8900009D421466846FFF748FC2246294610A8FD
:10A8A000FFF7A8FFE5E7089BDB0707D4214608A8C8
:10A8B000FFF73BFC2246294618A8F1E7002823466B
:10A8C0001CDD08AA69466846FFF712FA2146684669
:10A8D000FFF72BFC224618A910A8FFF711FC00284F
:10A8E00005DA10A923462A460846FFF7D1F910A930
:10A8F000234618AA0846FFF7FBF9CEE76A4608A8E0
:10A90000FFF7F6F9214608A8FFF70FFC224610A929
:10A9100018A8FFF7F5FB002805DA18A923462A46F0
:10A920000846FFF7B5F918A9234610AA0846FFF70D
:10A93000DFF9BFE7004870476CD707002DE9F04FFB
:10A94000EDB00D46769E04901946B6F9023096F9A0
:10A95000004013F11F0848BF03F13E0848F34718B1
:10A9600008F1FF3B24AB002743F82B706CAB03EBE3
:10A970008B034CA843F8807C43F8607C924696F9A0
:10A980000120FFF779F996F9012054A81144FFF747
:10A9900073F921464CA8FFF76FFB8146002840F071
:10A9A000238154A8FFF768FB0390002840F01E8124
:10A9B00006F1240942464CA94846FFF7A1FB0128AD
:10A9C00040F01681424654A94846FFF799FB0128FA
:10A9D000069040F00D810CAF43464A461CA8FFF795
:10A9E00025FF039B47F82B3052462946384633460D
:10A9F000FFF7BAFE394638464B461CAACDF8008010
:10AA0000FFF7CBFB5CAD4B461CAA4CA914A8CDF8B4
:10AA10000080FFF7C2FB224628460499FFF764FB3B
:10AA2000A3000793049B05EB840A03EB840106F162
:10AA3000440B5046FFF758FB594634A8FFF754FB28
:10AA4000A3000BEB03013CA8FFF74EFB331D294687
:10AA500034AA1CA800940593FFF78DFB53462A46A1
:10AA60003CA934A80096FFF718FE1CA90846234607
:10AA7000321DFFF7DBFE1CAA514628463346FFF77E
:10AA8000EDFD039BCDE9083B049B41463846CDE9EB
:10AA90000A35FFF70AFB4146054614A8FFF705FBF8
:10AAA0008542B8BF0546ADB205F1FF3B0FFA8BFBFF
:10AAB00059463846FFF7EFFA5946071E14A818BF43
:10AAC0000127FFF7E8FA002814BF022000200DF14B
:10AAD000200A074322465AF8271024A8FFF704FB50
:10AAE0000DF1B00BA30019445846FFF7FDFA1CA85E
:10AAF0002146FFF7B6FA069B0360023D24AB2DB258
:10AB000004938246002D23DA059A23465146504687
:10AB1000FFF78CFE0498334652465946FFF79EFDD8
:10AB2000049942464846FFF7EBFA012804D0434611
:10AB30004A460846FFF7DCF8013C64B24CAA2306FB
:10AB400047D5039BB3FA83F040096DB0BDE8F08FA1
:10AB500033465246D6F8A47004985946B847294659
:10AB60000CA8FFF798FA2946071E14A818BF01275A
:10AB7000FFF791FA002814BF02200020074308AB1A
:10AB800053F8271011B3224634A8FFF7ADFA079BFC
:10AB90003CA81944FFF7A8FA01463346524634A8A8
:10ABA000FFF75CFD059B0499009434AA44A8FFF7C5
:10ABB000E2FA049A00965B463CA934A8FFF76DFDC3
:10ABC000334644AA51465046FFF785FB013D2DB25E
:10ABD00098E7049B52F8241053F824304B40039913
:10ABE00019430391013CAAE73846AEE74846ACE773
:10ABF0000398AAE7007800F00100704741DF704732
:10AC0000014B01221A7070479C460020BFF34F8F02
:10AC10000549064BCA6802F4E0621343CB60BFF3F8
:10AC20004F8F00BFFDE700BF00ED00E00400FA0514
:10AC3000024B034800221A7001F0AEBB9C46002074
:10AC40000DAC0700C31E10B50446042B09D8DFE87D
:10AC500003F00303080F0F0009494FF4701000F0D0
:10AC60003BFA084B1B6853B12046BDE8104018471B
:10AC7000054B064800221A7001F08EFBF1E710BD6B
:10AC800031AC0700A04600209C4600200DAC070018
:10AC90000020704738B5574B1860002001F092FB38
:10ACA000044648B900F0F0FA012800F0998041B25A
:10ACB00021B1022800F09A80032038BD4FF0804374
:10ACC000D3F8004414F4803440D04FF48032C3F8F9
:10ACD00000240C46484D2B6A012B4AD04FF47014C7
:10ACE00000F050FB454A20211820FDF767FB08B112
:10ACF000FEF79EFF424B1A6802F0F802B02A06D116
:10AD00001A68D20742BF1A6802F04E021A603A4B24
:10AD10009A6D012A06D10020986501F013FB08B155
:10AD2000FEF786FFFFF7B4FF0028C5D1204635495E
:10AD300000F0D2F9344800F0E5FC0028BCD100F066
:10AD400047FBFDF7C5FBFFF759FFF8E7D3F82025D0
:10AD500002F0F802A82A0AD1D3F82025D10706D597
:10AD6000D3F8202502F05602C3F82025B2E70124CB
:10AD7000B0E743F204031A68244B9A4209D001F069
:10AD800041FCAA69014694B1214801F027FF90B91E
:10AD9000A4E76A6B1CB995F86032012BEFD04FF431
:10ADA00080511C4801F01AFF0028E8D196E795F879
:10ADB000A132012BE8D1124B1B6813F0B10F8DD1DA
:10ADC000AB6D012B8AD001F0C9FB00287FF474AF72
:10ADD000114B1870114801F0DFFA00F023F86BE70F
:10ADE0000D4B0F481C7001F0D7FA65E74FF4A02413
:10ADF00076E700BFA04600206C5E00207C42002069
:10AE00001C05004031AC070045AC0700DBE5B15143
:10AE10000D610020CC6000209C46002001AC0700A2
:10AE20000DAC070008B5074B4FF0FF32C3F8802088
:10AE3000C3F8802101F0ACF84FF48050BDE8084021
:10AE400000F02EB800E100E00346C1F30B0070B53E
:10AE500020BBB3F5FE2F21D81B0B013903EB1131B9
:10AE600001264FF08044994200D270BD03F01F02CA
:10AE70005D0906FA02F2032D05D8DFE805F00206A7
:10AE8000090CC4F800260133EDE7C4F80426FAE7FC
:10AE9000C4F81026F7E7C4F81426F4E70720E4E71F
:10AEA00030B50546204889B00022C0F5FE21FFF7E5
:10AEB000CBFF01F0A7FB1D4B99690022014410460E
:10AEC000FFF7C2FFEFF305820023D5E9004183F3CA
:10AED000148883F3108883F3118883F31388C2F3F3
:10AEE00008023AB984F308884FF0FF339E460847BA
:10AEF00009B030BD4FF0FF35203CCDE90033CDE93E
:10AF000002330493CDE905514FF080732022694646
:10AF10002046079302F083FA84F30888AE466FF068
:10AF200006031847E4E700BF008007006C5E0020BE
:10AF300037B56FF07F42154C057BD4F804358A4253
:10AF400028BF0A46891A13444A1E942A23F07F43D5
:10AF500005F5A8729BBF963B96314160416044F86D
:10AF600022300B4B4FF4F86043F001039847094B34
:10AF7000AA00134400221A601B680193019B4FF43E
:10AF80008033AB40C4F8043303B030BD004002400E
:10AF900020D807004041024018490A7884B0002AAE
:10AFA00029D14FF08043A020D3F81834DB035EBFD3
:10AFB000134B01221A60134A002313601268039294
:10AFC000039A114A136012680292029A0F4A1360A0
:10AFD00012680192019A0E4A82F8240310205060F0
:10AFE0000C4A0D48C2F808350123036002201360A3
:10AFF000C2F804030B7004B0704700BFA8460020DD
:10B0000008000040004102404041024044410240EB
:10B0100000E100E00040024008400240284B1A686E
:10B0200013B542B127490A6801320A6000221A604A
:10B030001B680093009B244B1A68A2B100221A607F
:10B0400022481B68027B0193019B4FF4803393409D
:10B050001F4AC2F808334168044601BB8168D9B968
:10B06000236803B198471B4B1A6832B300221A6059
:10B0700016481B68027F0193019B4FF48033934075
:10B08000134AC2F808334169044659B1103002B07E
:10B09000BDE81040FFF74CBFFFF74AFFE0E7FFF7BE
:10B0A00047FFE0E7816911B11030FFF741FF2369E5
:10B0B0001BB102B0BDE81040184702B010BD00BF80
:10B0C00004410240A44600204041024014400020B8
:10B0D000004002404441024070B50B4B1C68227B8B
:10B0E0004FF480339340094A0E46C2F808330546B0
:10B0F00040B1FFF751FF266029462046BDE8704069
:10B10000FFF716BF70BD00BF344000200040024072
:10B1100070B5074B1C6805460E46A060FFF73CFF64
:10B12000266029462046BDE87040FFF701BF00BFFA
:10B1300038400020014B01221A707047A9460020B8
:10B1400070B5154DEA6A6E6AAC6CAC2A13D16B6BA4
:10B150001C44F61AEB6AAC2B13D0324621460F483A
:10B1600002F022F9A8B100F033F931462046BDE8DB
:10B17000704000F0EFBE002CECD101F059FA04460B
:10B18000E8E73246A4F58041044802F00DF90028B2
:10B19000E3D1002070BD00BF6C5E0020008007007E
:10B1A0002DE9F74F80468946A9EB0804240B02F6E7
:10B1B000FF76154600F0E6F8082C28BF0824230384
:10B1C000DFF860B00193360B0DB92B4626E0B44290
:10B1D0002CBFB246A2464FF00002514640462CBF5B
:10B1E0002F46019F00F09EFE0346B8B9FA1C22F0DC
:10B1F00003024946404600F087FE034670B9DBF87B
:10B200003030ED1BB844B9441F44CBF8307001F026
:10B21000C9F8A6EB0A0603460028D5D0184603B0A5
:10B22000BDE8F08F6C5E002010B501F011FA154AF0
:10B2300042F20403916CCC5803F1A34303F5471386
:10B2400003F2D7539C4218D1D2E90C32934216D064
:10B25000884204D10020BDE8104001F0A3B8D21A02
:10B2600002F6FF7222F47F6222F00F0219441844A2
:10B27000FFF796FF0028EDD010BD0320FCE700206B
:10B28000FAE700BF6C5E002070B5264CE36AA52B80
:10B2900033D003D8012B0BD0002070BDAA2B30D0A7
:10B2A000AC2BF9D1FFF7C0FF48BBFFF749FF26E001
:10B2B000A66C656A01F0A6F9864229D101F0A2F9CF
:10B2C00000222946FDF770F9A36A984202BF0123C4
:10B2D000C4E90703A5610025134801F087F9134B62
:10B2E000134800221A7001F05DF868B975B1236A3D
:10B2F000012B14BF01200220CFE7FFF795FF0125A6
:10B30000EAE7FFF71DFFE6E70320C6E70120C4E7F1
:10B31000236BEA1AF1181844FFF742FF0028DAD12C
:10B32000CCE700BF6C5E0020905E0020A9460020A4
:10B3300035B107000A4AD2F800347BB1094800232E
:10B34000D2F80815D940C90748BF03F5C07103F109
:10B35000010348BF42F82100072BF1D1704700BF1D
:10B36000000001403546526EFFF7E4BF044B002257
:10B3700082B01A601B680193019B02B0704700BF46
:10B380000001014038B50E4C2278BAB90D4BD3F804
:10B3900000248AB1D3F80455FFF7CCFF40F61650CD
:10B3A000A842B8BF28460849A0F54860FFF7B0FE9C
:10B3B000064B4FF480321A600123237038BD00BF62
:10B3C000AA4600200000014069B3070000E100E048
:10B3D000034BD3F800340BB1FFF7ACBF704700BF8D
:10B3E000000001400C4B1B78062B10D10B4B1B6847
:10B3F0001A070CD10A4B186800F0F003302B08D064
:10B4000000F0E000A0F1400358425841704700208E
:10B4100070470120704700BFE00F00F0E40F00F01C
:10B42000E80F00F0094B1B78062B0CD1084B1B686A
:10B430001A0708D1074B186800F0F000A0F130039C
:10B440005842584170470020704700BFE00F00F09D
:10B45000E40F00F0E80F00F008B5FFF7C3FF28B1D4
:10B460007D4B7E4A1B68C3F304231360FFF7DAFFAA
:10B4700010B17B4B7B4A1A60FFF7B4FF28B17A4BBF
:10B480007A4A1B68C3F342331360FFF7CBFF20B146
:10B49000774AD36823F08073D360FFF7A3FF40B1EE
:10B4A0004FF080430022C3F80C21C3F81021C3F8E9
:10B4B0003825FFF7B7FF10B16E4B03221A60FFF774
:10B4C000B1FF40B16C4B05221A6001229A6700223D
:10B4D0009A603F225A60694B1B78062B50D1684B0B
:10B4E0001B6819074CD1674B1B6803F0F003502B06
:10B4F00046D14FF08052644BD2F80414C3F82015A3
:10B50000D2F80814C3F82415D2F80C14C3F828157F
:10B51000D2F81014C3F82C15D2F81414C3F830154F
:10B52000D2F81814C3F83415D2F81C14C3F8401517
:10B53000D2F82014C3F84415D2F82414C3F84815DF
:10B54000D2F82814C3F84C15D2F82C14C3F85015AF
:10B55000D2F83014C3F85415D2F83414C3F8601577
:10B56000D2F83814C3F86415D2F83C14C3F868153F
:10B57000D2F84014C3F86C15D2F84424C3F87025EF
:10B58000FFF730FF28B1414B414A1B6803F04F03DE
:10B590001360FFF727FF48B14FF08043D3F8002432
:10B5A000D20744BF6FF00102C3F80024394B1B6877
:10B5B000062B08D1384B1B68062B01BF374A13688E
:10B5C00043F480631360364AD2F8883043F4700342
:10B5D000C2F88830BFF34F8FBFF36F8F4FF0102347
:10B5E000D3F80022002A03DBD3F80432002B2FDA31
:10B5F0002C4B0122C3F80425D3F80024002AFBD0E9
:10B600004FF010221521C2F80012D3F80024002AAE
:10B61000FBD04FF010231522C3F80422214B1A4609
:10B62000D3F800140029FBD00021C3F80415D2F888
:10B630000034002BFBD0BFF34F8F19491A4BCA6857
:10B6400002F4E0621343CB60BFF34F8F00BFFDE70E
:10B65000164B174A1A6008BD2403001040350140FC
:10B6600074C007400DF0ADBA440200103C05004024
:10B67000F0ED00E0A005004010560040E00F00F0A3
:10B68000E40F00F0E80F00F000C000405802001086
:10B69000E40E004030010010340100103C1700405F
:10B6A00000ED00E000E001400400FA053C4000200D
:10B6B0000090D00313681F2B10B5144607D9002241
:10B6C0000830FDF7E7FB08B92023236010BD48F2DE
:10B6D0001450FBE70830FDF7B9BB0830FDF786BB17
:10B6E000062810B5044602D1002000F067FF044B85
:10B6F0001B681BB12046BDE81040184710BD00BFB5
:10B70000AC46002008B5074B18600020FFF7E8FFA3
:10B71000054800F03BFF20B90348BDE8084000F0B1
:10B72000C5BD08BDAC460020E1B607006CDF704720
:10B730006DDF704772DF704773DF704774DF7047EB
:10B7400075DF704776DF70477ADF70477CDF7047C0
:10B750007DDF70477FDF704786DF70478FDF704780
:10B7600090DF7047A8DF7047AADF7047ADDF7047F2
:10B77000AEDF7047B0DF7047B1DF7047B5DF7047AD
:10B7800062DF704766DF704713DF70477FB50023C5
:10B79000CDF80A30ADF80E300A4BADF806109B8993
:10B7A000ADF8083001238DF80A300DF10603CDE91C
:10B7B0000430054B02A91888FFF7DAFF07B05DF8DF
:10B7C00004FB00BF1A5700204240002001460148F8
:10B7D000FDF707B840D5070070B518228CB00021DE
:10B7E0000DEB020001F044FE2823089316231F4CA2
:10B7F000ADF806300023CDF80E30CDF81230ADF89C
:10B8000016300223092606222370237159230125AD
:10B81000A27063710322FE230DF10601A0198DF8B9
:10B8200018508DF82D500294ADF80C606570E270E0
:10B83000A371FFF78DFFB8B9BDF8063026725A190B
:10B84000E271BDF80C200A4C134402A906AA204656
:10B85000ADF80C30FFF76EFF30B92078FFF76EFFC0
:10B8600029462078FFF768FF0CB070BD2E570020E6
:10B87000404000202DE9F04103881F2B8AB0044688
:10B8800000F0C3802AD8112B57D007D8012B00F025
:10B89000CD80102B43D00AB0BDE8F081142B00F00E
:10B8A00043811A2B34D0132BF5D10023A24CADF8D1
:10B8B00012300223ADF8103004AA02AB42F6052183
:10B8C00020880593FFF752FF08B1FEF7B1F9002376
:10B8D0001A4685212088FFF73DFF86E0512B00F0B6
:10B8E000AB800ED8232B00F08880502B39D0212B31
:10B8F000D1D1002304A98088ADF81030FFF72EFFC6
:10B9000073E0552B59D0562B00F08680522BC2D1B4
:10B9100000231A461946A088FFF72EFF65E0864BE4
:10B9200082881A80854A12681C460AB10120904715
:10B9300083492088FFF704FFADE77F4B4FF6FF7286
:10B940001A80804B1B685A0704D4FFF745FF08B1E3
:10B95000FEF76EF9794B1B68002B9CD002209847AC
:10B9600099E7794EC288B3889A4294D17748FCF718
:10B9700014FF054600288ED0228A04F1120101F03E
:10B980004EFD1822002104A801F072FD08238DF855
:10B9900010306F4B06936F4B0596CDE9073504A821
:10B9A000238AADF8243000F077FC00283FF473AF11
:10B9B00029466648FCF715FF6DE7C188F6291AD8B5
:10B9C000CB1E9B070DD0CB1F9BB2013B5A4202F00E
:10B9D000030203F0030301F1FF3158BF5342C91AB8
:10B9E00089B2554B1888FFF7C9FE00283FF453AFC2
:10B9F000FEF71EF94FE7F721F3E7002204A980883C
:10BA0000CDE90422FFF7ACFEEFE74B4B00F1080154
:10BA10001888FFF795FEE8E78379002B7FF43BAFAA
:10BA2000454B13211888FFF78DFEDEE7424B0021BE
:10BA30001888FFF7A7FED8E78379002B3FF42BAFD8
:10BA4000022B7FF428AF404900898A8990420E4634
:10BA50007FF421AFA27B012A7FF41DAF00220120D9
:10BA6000CDE904228DF81600208AADF81800324D79
:10BA7000608AADF81A0004F114000790ADF80A20AE
:10BA800001AF02AA098A28888DF81030ADF8083075
:10BA90000397FFF76BFEA84660B93846FFF7AAF890
:10BAA00040B940F2FD1304A92888ADF81430FFF71F
:10BAB00061FEF0E6002304A9B8F80000ADF81430E8
:10BAC000FFF758FE014600287FF4E5AE182204A8CF
:10BAD00001F0CEFC237D1E4A8DF81030022B059616
:10BAE000069218D0062B10D0012B10D11A4B1A88B1
:10BAF0001A4B1A80637DD4F816200893012B099203
:10BB000005D1174800F05AFD01E0637D089304A8B1
:10BB100000F0C2FBBFE6A27D637D43EA02230E4A2A
:10BB200013800E4A1380F2E700231A4619468088D4
:10BB3000FFF712FE59E700BF424000205457002093
:10BB400016DA0700505700201A57002040D507008A
:10BB5000D1BB0700CDB70700585700205A57002027
:10BB600038D50700154A38B51368044613F00100AC
:10BB700022D013498C421ED0124908884FF6FF711B
:10BB8000884213D043F0040313211360FFF7DAFD5A
:10BB900090B90D4DC82445F001054FF47A40A847EF
:10BBA000013CFAD1BDE8384001F0D2BA074B187811
:10BBB000FFF7C4FDF6E7002038BD00BF5057002056
:10BBC00038D507004240002010DA0700404000202E
:10BBD00010B5044686B01122002101A801F048FCEE
:10BBE0002378082B0BD1374A374913880988013B42
:10BBF0009BB21380D9B1D3B903231180237062782B
:10BC000023788DF805306021012A8DF804108DF815
:10BC100006200ED00B2A12D100F092F98DF8070001
:10BC2000002000F087F9042101A8FFF7AFFD06B05E
:10BC300010BD062B05D0082B29D0032B27D00321BC
:10BC4000F2E7E1688DF80710D4E90123080A8DF8BE
:10BC50000800080C090E8DF80A10110A8DF80B2047
:10BC60008DF80C10110C120E8DF80E201A0A8DF89A
:10BC70000F308DF810201A0C1B0E8DF80D108DF85A
:10BC800009008DF811208DF812300F21CCE7D4E98E
:10BC90000123110A8DF807208DF80810110C120EDF
:10BCA0008DF80A201A0A8DF80B308DF80C201A0C2A
:10BCB0001B0E8DF809108DF80D208DF80E300B211C
:10BCC000B2E700BF5A570020585700202DE9F04333
:10BCD000444B95B005464FF6FF721A8001204FF68F
:10BCE00059632A4602A98DF80A00ADF80830FFF71B
:10BCF00039FD0446002871D13B4B04AA03F110071B
:10BD0000164618685968144603C40833BB422246D5
:10BD1000F7D1A91C3046FFF733FD044600285DD15A
:10BD200001461C220DA801F0A3FB9DF83430ADF8AC
:10BD3000044043F004038DF834300223ADF80C3096
:10BD4000AB788DF80E3004F0F80343F003038DF860
:10BD50000630F423CDE90A44ADF82C302B4601AE71
:10BD60004FF0110903AF33F8040B0C9408AA0DA986
:10BD70008DF80590CDE90876FFF7F6FCA04604465D
:10BD800060BB01461C220DA801F072FB9DF8343007
:10BD9000ADF8044023F0180343F018038DF8343055
:10BDA0000123ADF80C30AB788DF80E301723CDE9B8
:10BDB0000A44ADF82C302B4608F0E80848F0130888
:10BDC00033F80C0B0C9408AA0DA98DF805908DF88A
:10BDD0000680CDE90876FFF7C7FC0446204615B07B
:10BDE000BDE8F08342400020F4D9070030B5334C61
:10BDF000236813F0010585B05DD1314B18603148DF
:10BE0000FCF7B4FC029500F0B6F800284CD12E489F
:10BE1000FFF7BAFC002847D101F05CF9002843D1B4
:10BE200002A801F025FA00283ED102A9012001F064
:10BE300029FA002838D102A801F08CFA002833D161
:10BE400000F07CFB30B1214800F06CFB236843F02C
:10BE500002032360112302A88DF80430FFF768FC69
:10BE600010BB9DF8093002A801338DF80930FFF7A7
:10BE70005DFCC8B923689B0718D51449886904314B
:10BE800082B201A8FFF762FC70B91148FFF75CFCB1
:10BE900050B91048FFF71AFF30B9FFF79DFC18B9E9
:10BEA000236843F00103236005B030BD0A4801F068
:10BEB00012FB0949E4E70020F6E700BF50570020D5
:10BEC0005457002040D5070000800700B0460020EE
:10BED00016DA07001A57002004DA070043690BB18D
:10BEE000C0681847704700000449054B0022904283
:10BEF00008BF19460348FCF78EBC00BFDCD507001D
:10BF0000B0D507000040002007B5009313460A464D
:10BF100001460348FCF783FC03B05DF804FB00BF57
:10BF20000040002013460A4601460148FCF77EBC4B
:10BF300000400020014B18700B2070475C57002018
:10BF4000024B002218781A70704700BF5C5700201F
:10BF500018DF704730B585B0054610220C4668469C
:10BF6000002101F085FAA408684601950294FFF7C4
:10BF7000EFFF05B030BD1FB50023CDE901330393BA
:10BF8000684602230093FFF7E3FF05B05DF804FB6A
:10BF90004FF000534FF480521A60002070470000A9
:10BFA000014B06201B681847685700200A2803D950
:10BFB0000B38C0B2FFF7BEBF7047000010B5044693
:10BFC00086B00020FCF73AFC014630B1164A182131
:10BFD0002046FCF717FA06B010BD1822684601F09B
:10BFE00047FA04238DF80030104A114B116D1B687D
:10BFF000994211D10F4B186800F034FF8DF8010001
:10C00000FFF7D4FFD4E901138DF801006846984783
:10C01000094800F0C7F9DEE701238DF801306846D2
:10C02000D4E901139847D6E7BDBF07006C5E002036
:10C030006057002064570020A1BF0700F0B50446F8
:10C0400087B0162200210DF1020001F011FA2378C9
:10C050008DF8003001220C2B8DF8012000F21081A8
:10C060009A4012F4AD7F15D1510706D4D30440F1A4
:10C070000781844B07201B689847D4E90113684661
:10C0800098479DF80130012B00F0EF807D4B052093
:10C090001B68E9E0062B7C4A01D0012B01D1216904
:10C0A00011701178012904D0022954D00023137093
:10C0B00096E0013B072BE0D801A252F823F000BF25
:10C0C000E1C007007BC007004BC107001FC107008C
:10C0D0007BC0070045C107007BC00700F9C007000F
:10C0E000684B03201B689847606900F0C5FCFFF7A8
:10C0F0005DFF8DF80100C0E7A18A206900F0D4FC43
:10C10000FFF754FF614B8DF80100DA6B1B6C029353
:10C11000E3680192002BB0D020699847ADE75C49F5
:10C120005C4800F00FFDFFF741FF01288DF801008A
:10C13000A3D1002000F036F900289ED00A238DF804
:10C1400001309AE74FF400730393504BDA6B1B6C8A
:10C150000192029391E7013B072B8ED801A252F87E
:10C1600023F000BF85C107007BC007003BC207006A
:10C1700045C207007BC007006FC207007BC00700F5
:10C18000E5C1070000F0B0FC08B90823D7E76269F1
:10C190000AB90323D3E7C2F30B0333B13B4B3C494A
:10C1A0005B6D096813448B42F3D1B2F5805F01D90E
:10C1B0000423C4E7354B3649586D096815188D427C
:10C1C000E3D85A64DA6C9A6418651863314B1B68BB
:10C1D000002201211844FFF7A5FE00283FF44DAFCF
:10C1E0000523ACE700F080FC0028CED0274DA18AC3
:10C1F000D5E914329B1A6A6C0B449342C9D8254B7B
:10C200002E6B1B68206905F148021E44FCF7CCF92F
:10C21000E368A28A216907463046FFF775FE08B138
:10C22000E36879E7A38A2A6BAF641A442A632A6D0C
:10C23000029713442B6501931FE7144B9A6C0292EB
:10C240001B6DF8E7114BD3E91402596C821A8A422C
:10C250009BD19A6C5865002120465964DA64FFF737
:10C26000ADFE084B1B680420984707B0F0BD074B94
:10C270009A6C1B6D01934FF4805302920393FCE67A
:10C2800002235CE768570020444000206C5E0020D9
:10C29000605700206457002083681BB1024A1821B0
:10C2A000FCF7B0B8072070473DC0070038B5054619
:10C2B000C0B10120FFF718FE044648B900F0CEFBDC
:10C2C00000F012FC30B9084B00201D60FFF732FE71
:10C2D000204638BD0549064800F034FC0128F2D05C
:10C2E0000324F5E70724F3E7685700206057002090
:10C2F000645700202DE9F04115464FF46072064660
:10C3000088461F4601F050F828B915B90020BDE84D
:10C31000F081A847FAE7002201213046FFF702FE2C
:10C3200070B94FF460724146384601F078F82B46F8
:10C330004FF4607239463046FFF7E6FD0028E5D03D
:10C340000320E4E770B50C4C054600225821201D5F
:10C35000FCF72AF900222060C32104F51870FCF7CD
:10C3600023F92A46C4F85C022146044B0448BDE880
:10C370007040FFF7BFBF00BF6C5E00206C5700200D
:10C3800000F0070002460248024B0068FFF7B2BF08
:10C3900048400020EC5A00200149FFF7F3BF00BFDE
:10C3A00000F0070038B505460020FFF7CBFF044634
:10C3B00018B903492846FFF7E5FF204638BD00BFFE
:10C3C0006C5E00202DE9F041FFF78EFD024600284B
:10C3D00072D13D4C2368013357D05821201DFCF702
:10C3E000E3F825682A1A55425541384FDFF8E080B6
:10C3F0003E683368013362D000225821301DFCF7BB
:10C40000D3F83368834242D17468012C0AD00022E9
:10C41000C32106F51870FCF7C7F8D6F85C42231A5A
:10C420005C425C41ADB34FF460722749284800F08C
:10C43000F6FF64B1396827485422043100F0EFFF59
:10C44000396825484FF432725C3100F0E8FFD8F8C3
:10C450000440012C2CD12149402201F5E47000F068
:10C46000DEFF1F491C2201F5E47000F0D8FF1D49D2
:10C4700088F8A1420023042201F2862088F8603265
:10C4800088F8E23200F0CBFF0FE00546ADE700246C
:10C49000C8E724B14FF4607239680D48D5E74FF40E
:10C4A000607200210A4800F0E3FF0223C8F804305C
:10C4B0000020FFF777FF00B10320BDE8F081002DD9
:10C4C000EDD00024AFE700BF00F007004840002097
:10C4D0006C5E0020705E0020C85E0020C85F0020F7
:10C4E00008600020885E002029DF704738B50C4DB9
:10C4F0000446D5F8643378B101330FD100221821F6
:10C500000430FCF751F821462060072205F55970E8
:10C51000BDE83840FFF7E8BF0E2038BD0820FCE733
:10C5200000F0070008B528B11C22034900F077FF8E
:10C53000002008BD0E20FCE764F3070010B5064C90
:10C54000002218212046FCF72FF854F8043C1B1A4F
:10C550005842584110BD00BF68F3070010B50A4C9F
:10C56000D4F82433D4F864231340013309D04FF4B2
:10C57000FE20FDF7FBF9C92221464FF4FE20FDF70E
:10C580000DFA002010BD00BF6C5E0020F8B5094E0A
:10C59000094CA41B0746E4080025A54201D1002050
:10C5A000F8BD56F83530384698470028F8D101359F
:10C5B000F3E700BF38D5070040D50700F8B5094EAE
:10C5C000094CA41B0746E40800250436A54201D106
:10C5D0000020F8BD56F83530384698470028F8D185
:10C5E0000135F3E738D5070040D5070008B50C2220
:10C5F000002100F03DFF024B00221A6308BD00BF7E
:10C600006C5E002043F204031A68084B9A4201BF93
:10C6100043F20803186800F6FF7020F47F600CBF37
:10C6200020F00F004FF48050704700BFDBE5B151A0
:10C6300008B5FFF7E7FF054B9B69184400F6FF704C
:10C6400020F47F6020F00F0008BD00BF6C5E00206A
:10C650004FF48050704700002DE9F84F1F46224BE1
:10C66000DFF890A01E6A044615464FF0000843F21A
:10C6700004095FFA88FBBBF1010F14D0BBF1020F74
:10C680001DD0FFF7D5FF65B1721E53425341174AC3
:10C69000101AA04200D3F1B1ABB1A0421BD20420CA
:10C6A00020E02B46F3E7FFF7ADFF37B9D9F80030AC
:10C6B000B3EB0A0318BF0123E9E75B46E7E7012371
:10C6C0004FF48050E3E708F10108B8F1030FD0D12F
:10C6D000A042E4D302E0BBF1000F02D00448FFF710
:10C6E00085FF0020BDE8F88F6C5E00200060070029
:10C6F000845E0020DBE5B15190F8552012F0FB0F6D
:10C7000007D190F8643023B1836ECBB10B60012068
:10C71000704712F0010303D090F8563003B1836DD7
:10C720009207F2D590F85C20002AEED0054A006E00
:10C73000C2F5FC22904201D80344E6E7042070478A
:10C740000F2070470080070010B5084C4FF40072AE
:10C75000FF21204600F08CFE20220021A4F12400BD
:10C7600000F086FE002344F82C3C10BDC85E00207B
:10C770005B68DA680D4B9A4230B508D10C490A68FB
:10C7800012B90C4A14681CB10B4B00221A7030BD50
:10C79000D0E901341C4413F9015B002DA4EB030024
:10C7A000F9DB0B601060044B0122EFE7D0D80700E3
:10C7B00014620020106200201862002043F204037B
:10C7C00010B5194A1C68944201462BD042F204036A
:10C7D000C358981A434243419442184621D142F229
:10C7E0000403CB58A3421CD14FF4405301F500522F
:10C7F0001B781278142B81BF43F214030B481B687B
:10C80000B3FBF0F398BF0023142A89BF42F214024D
:10C8100000208858054A88BFB0FBF2F0181A18BFEC
:10C82000012010BD0023D7E7DBE5B15140420F00E6
:10C830002DE9FF472F49304D8A6B304C304FDFF8E0
:10C84000D490DFF8D4A06E465C313046FCF758FD3A
:10C8500096E80F0085E80F0000212A4B39704FF44D
:10C8600047722046C9F80010CAF80010EB6000F0CB
:10C87000FFFD224624492846FCF7DFFF20B90027A8
:10C88000384604B0BDE8F0873F78002FF7D094F821
:10C890006C3194F800801BB3B8F1000FEFD194F81D
:10C8A0007231002BEBD0DAF80020D9F800103046B6
:10C8B000FCF726FD96E80F0085E80F004FF4B272F2
:10C8C000414604F5BA7000F0D3FD04F5BA720F4981
:10C8D0002846FCF7B2FF0028D1D004F5BA7406E070
:10C8E000B8F1000FCBD0A379002BC8D00834084B87
:10C8F0001C60C5E76C5E0020386500201C620020CB
:10C900001862002071C7070084D90700D0D807003B
:10C91000F4650020146200201062002000B591B080
:10C92000FDF726F9684620220749FDF754F96A46C3
:10C93000402306490648FDF773F8064B01221A709A
:10C9400011B05DF804FB00BF2CD70700486500203C
:10C95000FCD60700EC610020F0B5A3B006460F46F8
:10C9600015461C4678222023002104A8029300F0DB
:10C970007FFD00230393194B1B780BB9FFF7CEFF04
:10C980002FB336BB02AB164E01930096289B154978
:10C99000224604A8FDF7D2F8E8B9402D1BD1124C6D
:10C9A0002A463946204600F03AFD20212046FDF770
:10C9B0001EF9CDE90045029B0C49324603A8FDF75C
:10C9C0004BF800280CBF0120052023B0F0BD132038
:10C9D000FBE71620F9E70A20F7E700BFEC6100202B
:10C9E0009065002028D80700B06500204865002029
:10C9F000F0B5ABB004460E4617461D4678222023FC
:10CA000000210CA8039300F033FD114B1B780BB9E8
:10CA1000FFF784FF2DB12146202204A8FDF7D0F8AE
:10CA200004AC03AB0B4D019300953B4632460A49DB
:10CA30000CA8FDF783F848B920222146284600F0CB
:10CA4000B3FCB0FA80F040092BB0F0BD0020FBE74A
:10CA5000EC610020ED61002028D8070008B5044BE8
:10CA6000986B08B1FFF7E4FE024B187008BD00BFD9
:10CA70006C5E0020F065002010B5044658B1B0F59A
:10CA8000007F0AD8064B00221A70FFF75DFE054BA7
:10CA900001209C6310BD0320FCE70420FAE700BFDF
:10CAA000F06500206C5E002070B50E4C0646E06B11
:10CAB000A36B42189A420D4611D85C300A462044B6
:10CAC000314600F0ACFCE36B04F140022B442946F4
:10CAD0003046E363FBF768FD2064012070BD03204E
:10CAE000FCE700BF6C5E0020014B1878704700BF68
:10CAF000F065002013B5104C94F86C21B2B194F895
:10CB0000D802B4F8DA2204F5377104F5B8740B4B87
:10CB10001B6800930A4B1B68FFF71EFF012809D111
:10CB2000201D02B0BDE8104000F0A0B9114610462B
:10CB30000434ECE702B010BD1C620020106200203B
:10CB400014620020204BD3E90E329A422DE9F041C5
:10CB500007460D4633D1DFF8788098F800604EB173
:10CB6000FFF766FD194B386029461868BDE8F041AB
:10CB7000FFF7C2BDFFF75CFE18B3FFF7BBFF01284C
:10CB80003E6004462E6017D1104B29461868FFF707
:10CB9000B3FD012804460FD10346324631462868CA
:10CBA000FFF75AFD38B9FFF743FD88F800403860B9
:10CBB0002046BDE8F0810424FFF7C6FDF8E708240D
:10CBC000F6E70524F4E700BF6C5E0020F465002062
:10CBD000F065002001237230FFF70ABF037837B5F4
:10CBE0000D461146032B03D8DFE803F02205101988
:10CBF000002003B030BDD0F8014000222846FBF7EA
:10CC0000D3FC844214BF00200120F2E70A4600232F
:10CC10002946013003B0BDE83040FFF7E9BE00917E
:10CC20002B46411C40220020FFF796FE0128E9E731
:10CC30000120DEE72DE9F041A2B004460D4617467B
:10CC400000217822984604A8202303939DF8A06031
:10CC500000F00EFC41220021204600F009FCB5F84E
:10CC600094300BB195F896602670032E1ED8DFE83D
:10CC700006F00902111F002241463846FBF794FCDA
:10CC8000C4F80100424639462046FFF7A7FF22B00C
:10CC9000BDE8F08103AB0193631C00933A46434621
:10CCA000074904A8FCF74AFF0028EBD00020EEE774
:10CCB000B5F8982005F19A01601C00F0B0FBE1E79F
:10CCC00028D807002DE9F047604B1D68A4B0044642
:10CCD0000F4690460A4601462846FFF77BFF00288C
:10CCE00000F0AA8095F855601EBB4FF00109CDF801
:10CCF00000903B462246294613A8FFF79BFF0028D9
:10CD000066D0B8F1000F54D0412213A9504800F06A
:10CD100086FB504B6A68C3F82C901E629A60002212
:10CD200039462046FBF740FC4A4B0125C3E9097010
:10CD30007DE04122002102A800F09AFB06F00109E3
:10CD40004122002113A806F0020600F091FBB9F180
:10CD5000000F32D042F20403E25803F1A34303F57B
:10CD6000471303F2D7539A4232D1D5F858A00AF5A7
:10CD7000FF520AF6FF73C3F30B031F32D21A42F2BB
:10CD80000803E358934223D32046FFF717FD00B171
:10CD9000F6B10123009322465346294602A8FFF725
:10CDA00049FFA8B1AB6DE218FB1A4EB9B8F1000FFC
:10CDB00010D1284B01255D6144E03B462246F4E753
:10CDC0000021009113A82946FFF734FF0028EDD178
:10CDD000052532E0DFF87C80B9F1000F20D0204635
:10CDE000FFF7ECFC18B108F11800FFF7FFFB412238
:10CDF00002A9194800F013FB002E14BFAC23A52391
:10CE0000C8F82C30AB6DC8F83430002E87D04122E2
:10CE100013A9124800F003FB6B68C8F80C307EE7DA
:10CE2000AA23C8F82C30F0E70D48FFF7DFFBFFF727
:10CE30008BFC084B9C6405E01725B8F1000FF3D17B
:10CE4000FFF782FC284624B0BDE8F087F465002097
:10CE50000D6100206C5E0020CC6000204E6100203F
:10CE6000905E00200122FFF72DBF000090F85430A3
:10CE7000F0B5002B53D090F85530032B4FD890F8D5
:10CE80006E20032A49D1027A002A48D0C268342A87
:10CE900047D143F20401028A0C6823498C422CD109
:10CEA00052B14169F1B1D2B2002100F1140543F24F
:10CEB0000C06CCB2A24201D8122311E055F8217021
:10CEC0003488A74201F10101F3D102780AB3012BA2
:10CED0004268164B17D89B689A4234BF102301232F
:10CEE0001846F0BD13B9012AE6D8EEE713F1FF3278
:10CEF00018BF0122002AE8D1DEE712B14269002AF8
:10CF0000DAD10278F6E7DB689A428CBF012310235E
:10CF1000E6E7012B18BF0F23E2E71423E0E70F2316
:10CF2000DEE71123DCE700BFDBE5B1516C5E0020DA
:10CF300038B1054B0360054B4360012303720020A9
:10CF400070470E20704700BF77CF070051CF070012
:10CF500069B10B78022B0CD1022804D003280CBF36
:10CF600011200820704703230B70002070470E200B
:10CF700070470820704710B50C4681B10B78042B20
:10CF800004D8DFE803F00E05030E0E00112010BDDB
:10CF9000FFF7ACFA0028FAD102232370F7E70E203E
:10CFA000F5E70820F3E7000070B5144B144A0C2194
:10CFB000D21AB2FBF1F2816911F8025C044635B96C
:10CFC00000690021914205D1012323600EE04FF05A
:10CFD000FF30F6E71E68AE420CD1461C07D19D68B3
:10CFE000D4E90001D4E90223A847206070BD5E683F
:10CFF0008642F4D001310C33E4E700BF54D507007A
:10D0000060D507001EF0040F0CBFEFF30880EFF3AC
:10D010000980FFF7C9BF00BF10DF704711DF7047FD
:10D0200013B5044609496846FBF72CFE019808B978
:10D0300002B010BDD0E900312046984718B16846CB
:10D04000FBF72AFEF2E71120F2E700BF24DA07001F
:10D0500013B5044607496846FBF714FE019B0BB95C
:10D0600002B010BD2046D3E9002190476846FBF787
:10D0700013FEF3E73CDA0700064B9A6822B11A6800
:10D0800022F480021A607047034B4FF48002C3F809
:10D09000802070476040002000E100E00B4991F8DB
:10D0A00016335A09EC231341DB0706D5084B9A685F
:10D0B0003AB94FF480030B60704742F20200FCF76C
:10D0C000B7BD1A6842F480021A60704700E100E0C0
:10D0D00060400020F7B5194F3C7864BB184E01251D
:10D0E00020463570FFF79CFF112821D02046FFF71E
:10D0F000AFFF144B8DF80340186801900DF1030049
:10D10000FBF718FA104901A8FFF786FF0446B0FAAA
:10D1100080F0400938709DF80300FBF72FFA3CB906
:10D120000A4B34701C70FFF7B9FF2846FFF790FFD9
:10D13000204603B0F0BD0824FAE700BFF9650020DF
:10D14000F86500201EDA07002B9C0700FA65002016
:10D15000F7B5154F3B781BB3144E01203070FFF725
:10D160005FFF11284FF000051CD00220FFF770FF71
:10D170000DF107008DF80750FBF7DCF9FFF74EFFC4
:10D1800004469DF807003D70FBF7F8F92CB93470A0
:10D19000FFF772FF0320FFF75BFF204603B0F0BDEF
:10D1A0000824FAE72C46F8E7F9650020F865002026
:10D1B000054B1B7833B1054B1B780BB1FFF7C8BF8C
:10D1C000FFF788BF08207047F8650020F965002048
:10D1D000014B1878704700BFF965002007B5084972
:10D1E0006846FBF74FFD019B13B903B05DF804FBE4
:10D1F000D3E9002090476846FBF74EFDF3E700BFF8
:10D2000030DA0700FFF7EABF60DF704769DF704779
:10D2100061DF704730B5114DADF5017D4FF4FA7403
:10D220000DF1020103A8ADF80240FFF7F1FF70B95C
:10D23000294601A8FBF726FD029B002BF0D003A88E
:10D24000D3E90021904701A8FBF726FDF4E7052864
:10D2500001D0FCF7EDFC0DF5017D30BD48DA07008B
:10D26000024B1B780BB1FFF7D5BF7047FB65002061
:10D2700018B1034B0360002070470E20704700BFB9
:10D2800000400020F0B5074685B00D4600295DD06E
:10D290002F4B0B600C22002101A800F0E9F80126B9
:10D2A00006232A68ADF8083001A920208DF8047003
:10D2B0008DF80660FFF7AAFF0C22002101A800F0FC
:10D2C000D7F800242A688DF8056001A94020ADF840
:10D2D0000640FFF79BFF0C22214601A800F0C8F88A
:10D2E000F7232A68ADF8063001A923208DF80470D1
:10D2F000FFF78CFF0C22214601A800F0B9F82A683C
:10D300008DF8046001A93046FFF780FF0C2221460A
:10D3100001A800F0ADF84FF4B0632A68019301A9A9
:10D32000A120FFF773FF0C22214601A800F0A0F80E
:10D330009DF804302A6864F3000301A9A0208DF849
:10D340000430FFF763FF204605B0F0BD0E20FBE779
:10D350000040002008B5FFF757FF10B9014B01222C
:10D360001A7008BDFB6500204BDF70471FB50D4CE0
:10D3700001A8FFF7F9FF70B9214602A8FBF782FC6C
:10D38000039B002BF4D00198D3E90021904702A819
:10D39000FBF782FCF4E7052801D0FCF749FC04B058
:10D3A00010BD00BF54DA0700002A36D070B413460F
:10D3B0000F2A1AD940EA010212F0030F01D05A1EB7
:10D3C00015E004680A689442F9D1043B041D0A1D63
:10D3D000114620460434043206680D68AE42EED190
:10D3E00020461146043B042BF2D85A1E10D0047874
:10D3F0000B789C420CD1431C4C1C0244184621461D
:10D40000934205D00133013406780D78AE42F5D051
:10D4100000780B78C01A70BC7047002070478446B3
:10D4200040EA010313F0030F18D18446202A0BD3DE
:10D430002DE9F007B1E8F807A0E8F807A2F120020B
:10D44000202AF7D2BDE8F007042A07D351F8043B9D
:10D4500040F8043BA2F10402042AF7D2002A05D0C6
:10D4600011F8013B00F8013B013AF9D160467047E1
:10D470008446002A2DD010F0030F04D000F8011BC1
:10D48000013A26D0F7E7C9B241EA012141EA014158
:10D49000202A12D3A2F120022DE9F0030B460C46FC
:10D4A0000D460E460F4688468946A0E8FA03203A04
:10D4B000FBD2BDE8F00320320BD0042A05D340F89C
:10D4C000041B043A05D0042AF9D200F8011B013AE2
:10D4D000FBD16046704700F1010110F0030F11D03D
:10D4E00010F8012B002A23D010F0030F0AD010F8F7
:10D4F000012B002A1CD010F0030F03D010F8012BD1
:10D50000002A15D02DE970004FF001324FF0803322
:10D5100050F8044BA4EB020525EA04051D4000D198
:10D52000F6E7A0F1040070BC10F8012B002AFBD133
:10D53000A0EB0100704770BC10F8012B002AFBD152
:10D53800EDBD070065BB0700CC460020085700205A
:10D5480019570020D4460020F40000000000000015
:10D558000300000031CF070075B807000000000085
:10D56800E989070000000000A98B070000000000FF
:10D5780061D20700000000006DD307000000000022
:10D58800058B0700000000000000000000000000FC
:10D59800DDBE0700001000000000080000100000B9
:10D5A800040000000100000081880700A58807002A
:10D5B800B588070025890700C58807008D880700FA
:10D5C80091880700958807000010000004000000FB
:10D5D800010000002D8A07000D8A0700FD89070059
:10D5E800358C0700E98B0700D1890700D58907002A
:10D5F800D9890700982F8A4291443771CFFBC0B56B
:10D60800A5DBB5E95BC25639F111F159A4823F9205
:10D61800D55E1CAB98AA07D8015B8312BE8531245E
:10D62800C37D0C55745DBE72FEB1DE80A706DC9B1F
:10D6380074F19BC1C1699BE48647BEEFC69DC10FCB
:10D64800CCA10C246F2CE92DAA84744ADCA9B05C07
:10D65800DA88F97652513E986DC631A8C82703B0CA
:10D66800C77F59BFF30BE0C64791A7D55163CA06D8
:10D6780067292914850AB72738211B2EFC6D2C4DE4
:10D68800130D385354730A65BB0A6A762EC9C281D2
:10D69800852C7292A1E8BFA24B661AA8708B4BC268
:10D6A800A3516CC719E892D1240699D685350EF492
:10D6B80070A06A1016C1A419086C371E4C77482749
:10D6C800B5BCB034B30C1C394AAAD84E4FCA9C5BBF
:10D6D800F36F2E68EE828F746F63A5781478C88410
:10D6E8000802C78CFAFFBE90EB6C50A4F7A3F9BEF2
:10D6F800F27871C6480028000020400035A90700CC
:10D70800DD93070081930700C59807003799070044
:10D7180057990700BD9207007D92070059980700A6
:10D7280000000000C885306EDDCAFD57F5352A3681
:10D738002DAADE832066870D54E9F339B4B1EC8E47
:10D74800AEDCE1C1B9F898A4758DB940F5376F6EB4
:10D758006F7D33F41334CFDA14F129855E4F2648F0
:10D76800D8D2B53008200001FFFFFFFFFFFFFFFF01
:10D77800FFFFFFFF000000000000000000000000A5
:10D7880001000000FFFFFFFF512563FCC2CAB9F387
:10D79800849E17A7ADFAE6BCFFFFFFFFFFFFFFFF60
:10D7A80000000000FFFFFFFF96C298D84539A1F49A
:10D7B800A033EB2D817D0377F240A463E5E6BCF846
:10D7C80047422CE1F2D1176BF551BF376840B6CB11
:10D7D800CE5E316B5733CE2B169E0F7C4AEBE78E0D
:10D7E8009B7F1AFEE242E34F4B60D2273E3CCE3B82
:10D7F800F6B053CCB0061D65BC86987655BDEBB324
:10D80800E7933AAAD835C65AFFA2070051A40700E1
:10D81800B1A40700000000000338FDD870470000DD
:10D82800DBB60700D5B60700B5B607002000000034
:10D838007800000000000000010001000000000066
:10D8480001000000000000000200050001000000C7
:10D85800420000000000000000000000000000007E
:10D868000000000000000000010011000100FFFF9F
:10D878000100000000000000020017000200FEFF87
:10D8880064010000D0D8070000000000000000007C
:10D89800000000000000000001000100000000007E
:10D8A8000100000000000000020005000100000067
:10D8B800220000000000000000000000000000003E
:10D8C8000000000000000000010011000400FCFF3F
:10D8D8000400000000000000020011000400FCFF2A
:10D8E8000400000000000000030021000400FCFF09
:10D8F8000400100000000000040011000100FFFFF8
:10D908000100000000000000050011000200FEFFF9
:10D918000400000000000000060011000400FCFFE5
:10D928000400000000000000070011000400FCFFD4
:10D938000400000000000000080017000200FEFFBD
:10D9480024000000A0D80700090010000100FFFF14
:10D958000100000080D907000A0027000200FEFF2E
:10D968004400030040D80700000000000000000049
:10D978000000000000000000000000000100170087
:10D988000400FCFF6801000070D8070002001700BF
:10D998000400FCFFAC010000B4D90700000000003F
:10D9A8000000000000000000000000000100070067
:10D9B800000000006801000070D8070002000100A4
:10D9C8000000000001000000000000000300050046
:10D9D80001000000420000000000000000000000FC
:10D9E80000000000000000000000000050EADA30EB
:10D9F8008883B89F604F15F30000C98E446675543C
:10DA080061726700000000000338FDD870470C0001
:10DA18000C000000580201000007000068D507004C
:10DA280070D507000800000078D5070088D50700E2
:10DA38000800000070D5070078D50700080000002E
:10DA480060D5070068D507000800000088D50700E2
:10DA580090D507000800000000000000000000004A
:10DA680000000000000000000000000000000000AE
:10DA780000000000010000001440002024400020A5
:10DA88000090D003FF00FFFF0100000000E0070046
:10E00000A86B09CD02000000E80300000100000039
:10E01000000000000000000030A00200B081BA60E3
